:020000040800F2
:1000000000000220392800088D2700088F270008EB
:10001000912700089327000895270008000000009A
:10002000000000000000000000000000972700080A
:1000300099270008000000009B2700089D27000862
:1000400089280008892800088928000889280008CC
:1000500089280008892800088928000889280008BC
:1000600089280008892800088928000889280008AC
:10007000892800088928000889280008892800089C
:10008000AD27000889280008892800088928000869
:10009000892800088928000889280008892800087C
:1000A000892800088928000889280008892800086C
:1000B000892800088928000889280008892800085C
:1000C000892800088928000889280008892800084C
:1000D000892800088928000889280008B92700080D
:1000E000892800088928000889280008892800082C
:1000F000892800088928000889280008892800081C
:10010000892800088928000889280008892800080B
:100110008928000889280008C5270008E127000869
:1001200089280008892800088928000889280008EB
:1001300089280008892800088928000889280008DB
:1001400089280008892800088928000889280008CB
:1001500089280008892800088928000889280008BB
:1001600089280008892800088928000889280008AB
:100170008928000889280008892800080000000054
:08018000892800088928000805
:1001900010B5054C237833B9044B13B10448AFF3C1
:1001A00000800123237010BD6800002000000000C3
:1001B000D037000808B5034B1BB103490348AFF320
:1001C000008008BD000000006C000020D03700084F
:1001D00001F0FF01102A2BDB10F0070F08D010F8F8
:1001E000013B013A8B422DD010F0070F42B3F6D1FC
:1001F000F0B441EA012141EA014122F007047FF015
:1002000000070023F0E80256083C85EA010586EA6B
:10021000010685FA47F5A3FA87F586FA47F6A5FAA7
:1002200087F68EB9EED1F0BC01F0FF0102F00702B3
:1002300032B110F8013B013A83EA010313B1F8D15E
:100240000020704701387047002D06BF354603383F
:10025000073815F0010F07D1013015F4807F02BF78
:10026000013015F4C03F0130F0BC0138704700BFC9
:1002700010B5084B044618684FF47A73B0FBF3F0DE
:1002800000F094F8002221464FF0FF3000F04EF8C5
:10029000002010BD0000002008B50B4B1A6842F486
:1002A00000721A601A6842F480621A601A6842F496
:1002B00080721A60032000F027F80020FFF7D8FFB3
:1002C00002F019F9002008BD003C0240024A136800
:1002D00001331360704700BFA0000020014B186875
:1002E000704700BFA000002037B50190FFF7F6FF70
:1002F000019C631C054618BF0134FFF7EFFF401B4C
:10030000A042FAD303B030BD074AD36823F4E063B8
:100310001B041B0C43F0BF63000243F4003300F4E2
:10032000E0600343D360704700ED00E0174BDB68EB
:10033000C3F3022330B5C3F107041D1D042C28BFED
:100340000424062D4FF0010505FA04F404F1FF34EE
:100350008CBF033B00230C409C4005FA03F3013B98
:100360001A40002842EA04024FEA0212AFBF00F12D
:10037000604000F00F00064BD2B2A5BF00F561400F
:10038000D2B21A5480F8002330BD00BF00ED00E067
:1003900014ED00E04209012300F01F0003FA00F011
:1003A000014B43F82200704700E100E00138B0F152
:1003B000807F0AD2064B074A5860F02182F823104A
:1003C0000020072298601A6070470120704700BF24
:1003D00010E000E000ED00E0044B1A6804280CBFB8
:1003E00042F0040222F004021A60704710E000E0BC
:1003F000704708B5FFF7FCFF08BD10B5044668B1AB
:10040000037903F0FF0213B9427102F0A5F8022349
:100410002371002001232061237110BD012010BD34
:10042000704703685A6B910410B504460ED5042238
:100430000271026942F0010202614FF400525A63F4
:100440001A6822F480521A60FFF7EAFF23685A6B99
:10045000920011D504222271226942F00202226127
:100460004FF000525A631A6822F0805220461A60F8
:10047000BDE8104000F022B810BD4379012B70B5E3
:100480004FF0020318D006680371356840F6FE731A
:10049000934025EA030491E828002B43934023432B
:1004A00033603368C02101FA02F223EA0202012319
:1004B0003260037100234371184670BD704700001D
:1004C0000368DAB223F47F7323F003031821103A90
:1004D000B2FBF1F20449032A88BF0433895C8365C7
:1004E000C165806D704700BFE837000870B50446ED
:1004F000FFF7F4FE0546002C64D0002384F8343066
:100500002268022384F83530136823F00103136056
:1005100020680368D90708D5FFF7E0FE401B0528CF
:10052000F6D920236365032051E00368294A6168F6
:10053000A5691A40A3681943E3681943236919435D
:1005400063690B43E1692B430B43216A0B4313435C
:10055000626A042A01BF216BE66A31430B430360E0
:100560004369042A23F0070343EA02031CD1A26A69
:10057000E16A1343C1B125B9012A0BD012D3022A73
:100580000FE0B5F5005F09D1032A0DD8DFE802F0CE
:100590001C0A1C02B1F1C07F06D115E0022A13D952
:1005A000032A01D1CA010FD443612046FFF788FF17
:1005B000E26D3F239340836000200123606584F84F
:1005C000353070BD012070BD40236365012084F883
:1005D000350070BD3F8010F090F83530022B03D00D
:1005E00080234365012070470268052380F8353079
:1005F000136823F00103136000207047F7B5002350
:100600000193856D594BC26D1F682E680823934076
:100610001E4204460CD001680868400708D50868E7
:1006200020F004000860AB60636D43F00103636574
:100630004F4B93401E4208D021684969090641BFCB
:10064000AB60636D43F0020363654A4B93401E4207
:1006500008D021680968880741BFAB60636D43F02B
:1006600004036365102303FA02F2164217D02368CD
:100670001968090713D5AA601A68500304D51B68C6
:10068000190308D5A36C07E01A68D2055EBF1A6883
:1006900022F008021A60236C0BB120469847E16DE6
:1006A00020228A4016423BD023681868C60637D5F8
:1006B000AA6094F83520052A1A6819D122F016028A
:1006C0001A605A6922F080025A61226C0AB9A26C3F
:1006D0001AB11A6822F008021A603F238B40AB60FF
:1006E000002384F83430012384F83530236D37E05B
:1006F000500304D51B6819030ED4636C0DE01A680F
:1007000012F4807208D1196821F0100119600123D8
:1007100084F8342084F83530E36B0BB120469847D9
:10072000636D03B3636DDA0719D50523226884F876
:100730003530136823F0010313604FF41653B7FBF1
:10074000F3F7019B01339F42019302D31368DB0748
:10075000F7D4002384F83430012384F83530E36C77
:100760000BB12046984703B0F0BD00BF0000002049
:1007700001008000040080002DE9F04F6A4F0B68F3
:10078000DFF8ACC1DFF8AC8185B000220193BE4632
:100790000124019B944034EA030340F0BD804D687E
:1007A00025F0100ABAF1020F14D14FEAD20900EB7A
:1007B000890902F0070BD9F820604FEA8B0B0F2351
:1007C00003FA0BF326EA03060B6903FA0BF3334330
:1007D000C9F820304FEA420B4FF00309036809FAC9
:1007E0000BF96FEA090905F0030603EA090306FAA3
:1007F0000BF60AF1FF3A3343BAF1010F03600FD849
:100800008368CE6809EA030306FA0BF61E43866086
:100810004368C5F3001623EA04039640334343605C
:10082000C36809EA03098B6803FA0BF343EA090377
:10083000C360EB0070D500230393DCF844603B4BAE
:1008400046F48046CCF84460DCF8446022F00309AA
:1008500009F1804906F4804609F59C39039602F0B7
:10086000030A039ED9F808B04FEA8A0A0F2606FA4F
:100870000AF698422BEA06061CD003F580639842DC
:100880001AD003F58063984218D003F5806398422C
:1008900016D003F58063984214D0404514D003F578
:1008A0000063984212D003F58063984214BF082376
:1008B00007230CE000230AE0012308E0022306E0FE
:1008C000032304E0042302E0052300E0062303FAE7
:1008D0000AF33343C9F808303B68E64315F4803F18
:1008E0000CBF33402343CEF80030DEF8043015F45B
:1008F000003F0CBF334023437B60BB6815F4801F6F
:100900000CBF33402343CEF80830DEF80C30AD0284
:1009100054BF33402343FB600132102A7FF438AFC9
:1009200005B0BDE8F08F00BF003C01400000024070
:10093000003802400014024002B909048161704786
:100940004369594041617047F8B504460F46154662
:10095000FFF7C4FC064623689A6837EA020201D111
:100960000020F8BD6A1CF7D03DB9012384F841305E
:10097000002384F840300320F8BDFFF7AFFC801B54
:100980008542E8D2F1E770477047704770B504467A
:10099000002800F084800225424B80F841504363D8
:1009A00001F02AFE2268D36923F47B6323F00F034E
:1009B000D36163691562022BD5692CD0E368002BE3
:1009C000A36814BF202610260120202B98BF760094
:1009D00000F014FE2369B3F5007F63690BD1E16871
:1009E0000A2209B1B60000E0F600B0FBF6F042437F
:1009F000B2FBF3F305E00A21B0FBF6F04843B0FB8D
:100A0000F3F305330A22B3FBF2F303F00101090209
:100A1000C3F34F0300E000219A1EFD2A07D9636C3F
:100A200043F0100363642046FFF7AFFF37E00B434A
:100A3000216922680B43201D13620BC81943A36967
:100A40000B439BB240F40061194389B20D43216A04
:100A5000D56101291DD114496163144D1449AA427D
:100A60000CBF0A464FF0402230F40070D16921F4E7
:100A70007B6121F00F01D1614FF002011162D16958
:100A80000CBF4FF48070002043F4006303430B431A
:100A9000D36100200123606484F8413070BD0120DF
:100AA00070BD00BFB50A0008A50C00080038004062
:100AB000003400401FB503689A68019290F8412005
:100AC000042A044638D1019AD10718D55A6852062B
:100AD00015D5C26A911CC162D9681180428E013A53
:100AE00092B24286428E92B24AB959684FF69F72CC
:100AF0000A405A60012380F84130FFF745FF019B0F
:100B0000590619D523685A68920615D559684FF6C3
:100B10009F720A405A6000220292DA6802929B6831
:100B20000293029B012384F84130636C43F002037B
:100B300063642046FFF729FF94F84130032B38D136
:100B4000019B9B071AD522685368180616D5636A5D
:100B5000991C1B886162D360638D013B9BB26385E6
:100B6000638D9BB253B951684FF65F730B4053606E
:100B7000012384F841302046FFF705FF019B190748
:100B800017D523685A68920613D559684FF65F72D5
:100B90000A405A60002203929B680393039B01233F
:100BA00084F84130636C43F0040363642046FFF72C
:100BB000ECFE04B010BD73B504461E460D46002978
:100BC0006BD0002A69D090F84130012B01D002206F
:100BD00064E00168CB6903F00703032B01D0052B08
:100BE00001D1520092B22286628694F84030012BE5
:100BF000EDD0012384F8403000236364042384F89B
:100C00004130CB6958055EBFCB6943F48063CB614B
:100C1000CB6903F44073B3F5407F0ED100230093FA
:100C2000CB6800938B680093009B06E0DB6825F897
:100C3000023B638E013B9BB26386608E80B230B311
:100C4000324601212046FFF77FFE40B1636C43F03E
:100C5000010320466364FFF798FE03201EE023682B
:100C60009A685206E2D50190DA6801929B68019376
:100C70000125019B84F8415084F84000636C43F0E7
:100C8000020320466364FFF780FE284606E0012346
:100C900084F8413084F8400000E0012002B070BDCB
:100CA00070470000F0B50368584D9A6885B0044657
:100CB0000092574AAB420CBF11464FF04021896861
:100CC0000191D96901F44071B1F5007F04D0D9696F
:100CD00011F4407F40F09E80009A91071CD55A681D
:100CE000120619D5626A911C12886162DA60628DFF
:100CF000013A92B26285628D92B26AB959684FF632
:100D00005F720A405A60638E9BB22BB9012384F84C
:100D100041302046FFF7C4FF019BDF072CD5206838
:100D20003A493B4B88420CBF1A464FF0402252686A
:100D3000560621D5E26A951CE56288420CBF1D4625
:100D40004FF04025ED681580628E013A92B26286BE
:100D5000628E92B282B9884218BF4FF040235A681F
:100D600022F060025A60638D9BB22BB9012384F894
:100D700041302046FFF794FF019B5D0628D523688C
:100D80002249234A8B420CBF10464FF04020406856
:100D900080061DD58B4218BF4FF040222046516877
:100DA00021F06001516059684FF65F720A405A6045
:100DB00000220292DA6802929B680293029B01234E
:100DC00084F84130636C43F002036364FFF7DDFD98
:100DD000009B1B0740F1AD8023685A68970640F1DD
:100DE000A88059684FF65F720A405A600749084A5E
:100DF0008B4218BF4FF04022516821F060015160D2
:100E0000002203929B680393039B88E00038004014
:100E10000034004001998E0724D5AB420CBF114627
:100E20004FF04021496809061CD5416AAB420CBF0E
:100E300016464FF040268F1C09884762F160418DAD
:100E4000013989B24185418D89B259B9726822F060
:100E5000A0027260438E9BB223B9012380F8413017
:100E6000FFF71EFF009BDA071DD5226853685B065B
:100E700019D5E36A991CE162D1681980638E013B40
:100E80009BB26386638E9BB26BB951684FF69F73BA
:100E90000B405360638D9BB22BB9012384F8413022
:100EA0002046FFF7FDFE009B5F061DD523685A68AC
:100EB000960619D559684FF69F720A405A601E4926
:100EC0001E4A8B420CBF13464FF0402320465A68FF
:100ED00022F0A0025A60012384F84130636C43F091
:100EE00002036364FFF751FD019B1D0721D52268B2
:100EF0001149124B8A420CBF18464FF040204068FF
:100F0000800616D58A4218BF4FF04023596821F059
:100F1000A001596051684FF69F730B405360012345
:100F200084F84130636C43F0040363642046FFF7A8
:100F30002CFD05B0F0BD00BF00380040003400407B
:100F400003682DE9F3410446D80703D423689907C1
:100F50004BD49BE08C4B9A6802F00C02042A07D019
:100F60009A6802F00C02082A0BD15B685A0208D575
:100F7000854B1B689B03E9D56368002BE6D10120F4
:100F800064E16368804DB3F5803F06D0B3F5A02FD0
:100F900008D12B6843F480232B602B6843F4803303
:100FA0002B6008E02A6822F480322A602A6822F442
:100FB00080222A606BB1FFF791F9734D06462B68CA
:100FC0009F03C3D4FFF78AF9801B6428F7D9032055
:100FD0003CE1FFF783F906462B689803B6D5FFF787
:100FE0007DF9801B6428F7D9F1E7674B9A6812F006
:100FF0000C0F07D09A6802F00C02082A17D15B6820
:10100000590214D4604B1A68920702D5E268012A8B
:10101000B5D11A68F82191FAA1F12069B1FA81F1EC
:1010200000FA01F122F0F8020A431A602EE0E268A9
:10103000564BEAB101221A60FFF750F9524D0646AD
:101040002B6851489B0705D4FFF748F9801B0228FD
:10105000F6D9BCE70368F82292FAA2F22169B2FA43
:1010600082F201FA02F223F0F803134303600DE069
:101070001A60FFF733F9444D06462B689F0705D5E4
:10108000FFF72CF9801B0228F7D9A0E723681E0779
:1010900003D423685D0748D51FE062693C4B72B1F9
:1010A00001221A60FFF71AF9374D06466B6F980751
:1010B000EFD4FFF713F9801B0228F7D987E71A60EE
:1010C000FFF70CF9304D06466B6F9907E1D5FFF736
:1010D00005F9801B0228F7D979E7002301932A4BF1
:1010E0002C4D1A6C42F080521A641B6C03F0805332
:1010F0000193019B2B6843F480732B60FFF7EEF89C
:1011000006462B68DA0513D5A3681F4D012B15D1B0
:101110002B6F43F001032B67FFF7E0F81A4D0646EB
:1011200041F288372B6F9B0719D5A269A2BB72E0E9
:10113000FFF7D4F8801B0228E3D948E7052B04D138
:101140002B6F43F004032B67E2E72A6F22F00102C2
:101150002A672A6F22F004022A6733B1DCE7FFF71F
:10116000BDF8801BB842DDD931E7FFF7B7F841F28F
:10117000883706462B6F9807D7D5FFF7AFF8801B47
:10118000B842F7D923E700BF0038024000004742C9
:10119000800E4742007000402E4DAB6803F00C03F8
:1011A000082B3FF4ECAE2C4E0023022A336041D1D1
:1011B000FFF794F880462B68264F99012DD447F607
:1011C000C07292FAA2F24FF44033B2FA82FE93FA5E
:1011D000A3F34FF07062B3FA83F592FAA2F2E069DA
:1011E000236AB2FA82F1626A034302FA0EF243EA18
:1011F0000200A36A5A08013A02FA05F3E26A0343BD
:101200008A4013437B6001233360FFF767F804468D
:101210003B689A0108D5002018E0FFF75FF8C8EB9B
:1012200000000228C7D9D2E6FFF758F8001B0228B1
:10123000EED9CCE6FFF752F804462B689B01EAD5BD
:10124000FFF74CF8001B0228F7D9C0E602B0BDE852
:10125000F08100BF00380240600047421B498B68A4
:1012600003F00C03042B2CD0082B2CD148684B68BE
:1012700000F03F0013F4800F47F6C0724B6892FAFB
:10128000A2F247F6C071B2FA82F201EA030121FA32
:1012900002F114BF0E4A0F4AB2FBF0F00B4A00FBFA
:1012A00001F352684FF4403090FAA0F002F440325B
:1012B000B0FA80F022FA00F001304000B3FBF0F009
:1012C0007047034870470348704700BF003802402A
:1012D00040787D010024F400554B1A6802F00F029B
:1012E0008A422DE9F04105460E460AD3296888074F
:1012F00011D55048836823F0F002AB681343836034
:1013000009E0CAB21A701B6803F00F039942EDD0CE
:101310000120BDE8F081C90706D4454B1A6802F0E8
:101320000F02964251D357E06B68424A012B03D11A
:10133000126812F4003F08E0991E0129126802D8D1
:1013400012F0007F01E012F0020FE1D0394CA268E8
:1013500022F003021343A360FEF7C0FF6B68012B6A
:10136000074641F288380CD1A36803F00C03042B24
:10137000D3D0FEF7B3FFC01B4045F5D90320BDE82D
:10138000F081022B0AD1A36803F00C03082BC4D010
:10139000FEF7A4FFC01B4045F5D9EFE7032B0FD1A3
:1013A000A36803F00C030C2BB7D0FEF797FFC01B0C
:1013B0004045F5D9E2E7FEF791FFC01B4045DDD877
:1013C000A36813F00C0FF6D1A7E7F2B21A701B68EE
:1013D00003F00F039E429BD129684A0706D51548A2
:1013E000836823F4E052EB68134383600B0707D54F
:1013F000104A2969936823F4604343EAC103936068
:10140000FFF72CFF0B4BF0229B6892FAA2F2B2FA84
:1014100082F203F0F003D340074AD35CD840074B75
:1014200018600020FEF724FF0020BDE8F08100BF17
:10143000003C024000380240133800080000002041
:10144000014B1868704700BF00000020084B4FF4A4
:10145000E0529B6892FAA2F2B2FA82F203F4E053ED
:10146000D340044AD35C044A1068D840704700BF98
:10147000003802402338000800000020084B4FF4D9
:1014800060429B6892FAA2F2B2FA82F203F46043DD
:10149000D340044AD35C044A1068D840704700BF68
:1014A000003802402338000800000020036813F0D1
:1014B000050F2DE9F341054619D1286810F0020007
:1014C00000F0908000230193484B494C1A6C42F085
:1014D00080521A641B6C03F080530193019B2368B4
:1014E00043F480732360FEF7F9FE064639E0414E6F
:1014F0003E4F00233360FEF7F1FE80463B683B4CD5
:101500001B0107D5FEF7EAFEC8EB00000228F5D95B
:10151000032067E047F6C07191FAA1F14FF0E04374
:10152000B1FA81F193FAA3F3B3FA83F26B6803FA89
:1015300001F1AB6893400B43C4F88430012333605E
:10154000FEF7CCFE064623681801B6D4FEF7C6FEA9
:10155000801B0228F7D9DBE7FEF7C0FE801B0228BC
:10156000D6D82368D905F7D5204C236F13F44073E0
:101570000FD1EA6802F44073B3F5407F1B4B27D1CB
:10158000996821F4F81022F0704121F44071014370
:1015900021E0EA6802F440729342EAD0236F164ACF
:1015A0000121116023F44073002111602367236F30
:1015B000DA07DED5FEF792FE41F288370646236F42
:1015C0009B07D6D4FEF78AFE801BB842F7D99FE767
:1015D000996821F4F8119960196FC2F30B020A435C
:1015E0001A67002002B0BDE8F08100BF0038024059
:1015F0000070004068004742400E4742012820D159
:10160000114B9A6812F4000204D0012A0F4818BF47
:10161000002070475A680C495B6803F03F00530292
:10162000D1F884204CBF0A4B0A4BB3FBF0F3D1F83E
:101630008400C2F388125343C0F30270B3FBF0F08E
:1016400070470020704700BF003802400080BB0098
:1016500040787D010024F4002DE9F041069E044607
:10166000884617461D462268936838EA03030CBF74
:10167000012300239F4233D06B1CF5D04DB9236862
:101680005A6822F0E0025A606268B2F5827F11D196
:1016900005E0FEF723FE801B8542E4D8EFE7A26851
:1016A000B2F5004F02D0B2F5806F03D11A6822F074
:1016B00040021A60A26AB2F5005F08D119684DF6BF
:1016C000FF720A401A601A6842F400521A6001233D
:1016D00084F85130002384F850300320BDE8F081B5
:1016E0000020BDE8F08113B50B4600928021002256
:1016F0000446FFF7B1FF20B1636D43F0200363653B
:10170000032002B010BD10B50446002836D00023D7
:10171000836290F8513003F0FF021BB980F850202B
:1017200000F0A8FFA16860680843E16808432169E8
:1017300002230843616984F8513023680843E16952
:101740001A680843216A22F040021A600843A2691D
:10175000A16A084302F4007101431960120C616A26
:1017600002F004020A435A60DA6922F40062DA6184
:1017700000200123606584F8513010BD012010BDA8
:101780002DE9FF411E4690F85030012B04460D46CE
:10179000904600F09E80012380F85030FEF79EFDB9
:1017A000074694F85100C0B2012840F08A80002D0D
:1017B00000F08880B8F1000F00F08480032384F8E3
:1017C000513000236365A363A4F83680A387E387C1
:1017D00063642364A3682563B3F5004F2368A4F80A
:1017E000348002BF1A6842F480421A601A685206B6
:1017F0005EBF1A6842F040021A60E268B2F5006FFC
:1018000062681ED172B1E28E92B2012A03D109E060
:10181000AEB1711C0ED1E38E9BB2D3B123689A682E
:101820009007F5D535F8022BDA60E38E013B9BB2C9
:10183000E386F0E7FEF752FDC01B8642EBD803209B
:1018400040E0A2B1E28E92B2012A10D0E38E9BB2A8
:101850004BB900973346012202212046FFF7FCFED8
:101860000028ECD115E023689A68920707D515F88F
:10187000012B1A73E38E013B9BB2E386E6E7002E51
:10188000DDD0731CE2D0FEF729FDC01B8642DDD8F7
:10189000D5E73A4631462046FFF725FF18B1202309
:1018A000636501200EE0A36833B903932368DA6807
:1018B00003929B680393039B606D003018BF012067
:1018C00000E00220012384F85130002384F85030D6
:1018D00000E0022004B0BDE8F08170477047704717
:1018E000704703681A69910710B5044614D5DA6881
:1018F000920711D56FF002021A619B6901229B07C2
:10190000027602D0FFF7EAFF04E0FFF7E6FF204689
:10191000FFF7E5FF0023237623681A69500716D5E1
:10192000DA68510713D56FF004021A619B6902222D
:1019300013F4407F2276204602D0FFF7CFFF04E069
:10194000FFF7CBFF2046FFF7CAFF0023237623686B
:101950001A69120715D5DA68100712D56FF0080258
:101960001A61DB69042299072276204602D0FFF72C
:10197000B5FF04E0FFF7B1FF2046FFF7B0FF0023FB
:10198000237623681A69D20616D5DA68D00613D5ED
:101990006FF010021A61DB69082213F4407F22768F
:1019A000204602D0FFF79AFF04E0FFF796FF20469B
:1019B000FFF795FF0023237623681A69D10708D51E
:1019C000DA68D20705D56FF001021A61204600F0EF
:1019D00083FD23681A69100608D5DA68110605D553
:1019E0006FF080021A61204600F0BFF823681A6980
:1019F000520608D5DA68500605D56FF040021A6124
:101A00002046FFF76DFF23681A6991060AD5DA6848
:101A1000920607D56FF0200220461A61BDE81040FB
:101A200000F0A2B810BD00002E4A0368904212D008
:101A3000B0F1804F0FD0A2F57C4290420BD002F55E
:101A40008062904207D002F58062904203D002F596
:101A50007842904218D14A6823F070031343214A18
:101A6000904237D0B0F1804F34D01F4A904231D0ED
:101A700002F5806290422DD002F58062904229D01A
:101A800002F57842904225D0184A904222D002F5C1
:101A9000806290421ED002F5806290421AD0A2F578
:101AA0009832904216D002F58062904212D002F530
:101AB000806290420ED003608B68C3620B688362C1
:101AC000084B98420BD003F58063984207D001235E
:101AD00043617047CA6823F440731343EBE70B6913
:101AE0000363F4E7000001400004004000400140AF
:101AF00010B50446A0B190F8393003F0FF021BB9CD
:101B000080F8382000F0DCFD022384F839302068AA
:101B1000211DFFF789FF012384F83930002010BD13
:101B2000012010BD90F83830012B10B54FF00203A2
:101B300018D080F8393003685A6822F070025A6071
:101B40005C680A6822435A609A6822F080029A60B0
:101B50009C684A6822439A60012380F83930002348
:101B600080F83830184610BD704770470368DA684F
:101B700022F49072DA605A6922F001025A6120233D
:101B800080F83A30704700002DE9F04707683B695C
:101B9000044623F44052C368A168C0691343226914
:101BA0003B61FB681143626923F416430A43024315
:101BB00023F00C031343FB607B6923F44072A36999
:101BC000B0F5004F43EA02037B617C4B7CD19F421E
:101BD00003D003F580639F4231D1FFF74FFC636868
:101BE00019254FEA43086843B0FBF8F8FFF746FCB5
:101BF000666868437600B0FBF6F6FFF73FFC636863
:101C00004FF064095B006843B0FBF3F0B0FBF9F000
:101C100009FB1066FFF732FCB8FBF9F86168F600C3
:101C20003236B6FBF9F67600684349004FEA0818E9
:101C300006F4F876B0FBF1FAFFF720FC30E0FFF78E
:101C400005FC636819254FEA43086843B0FBF8F8C0
:101C5000FFF7FCFB666868437600B0FBF6F6FFF71B
:101C6000F5FB63684FF064095B006843B0FBF3F079
:101C7000B0FBF9F009FB1066FFF7E8FBB8FBF9F8D9
:101C8000F60061683236B6FBF9F676006843490023
:101C90004FEA081806F4F876B0FBF1FAFFF7D6FB26
:101CA000454360684000B5FBF0F0B0FBF9F009FB7C
:101CB00010A2D2003232B2FBF9F303F0070343441F
:101CC0001E44BE60BDE8F0879F4202D03C4B9F425D
:101CD00030D1FFF7D3FB636819254FEA83086843C7
:101CE000B0FBF8F8FFF7CAFB66686843B600B0FBC4
:101CF000F6F6FFF7C3FB63684FF064099B00684387
:101D0000B0FBF3F0B0FBF9F009FB1066FFF7B6FB90
:101D1000B8FBF9F861683601684389004FEA081892
:101D20003236B0FBF1FAB6FBF9F606F0F006FFF733
:101D3000A5FB2FE0FFF78AFB636819254FEA8308AC
:101D40006843B0FBF8F8FFF781FB66686843B600AC
:101D5000B0FBF6F6FFF77AFB63684FF064099B006F
:101D60006843B0FBF3F0B0FBF9F009FB1066FFF736
:101D70006DFBB8FBF9F86168360132366843B6FB93
:101D8000F9F689004FEA081806F0F006B0FBF1FA00
:101D9000FFF75CFB454360688000B5FBF0F0B0FBEB
:101DA000F9F009FB10A212013232B2FBF9F303F091
:101DB0000F0333444344BB60BDE8F087001001408B
:101DC0000014014010B5044640B390F8393003F0D8
:101DD000FF021BB980F8382000F0A8FC22682423F9
:101DE00084F83930D36823F40053D3602046FFF7DA
:101DF000CBFE23681A6922F490421A615A6922F0D4
:101E00002A025A61DA6842F40052DA600020202384
:101E1000E06384F8393084F83A3010BD012010BDF9
:101E20007047704790F83A30222B10B532D1836852
:101E300001690268B3F5805F836A0BD1526821B9EA
:101E4000C2F3080223F8022B02E0D2B223F8012BDE
:101E500083620AE019B9591C8162526804E0526831
:101E6000591C816202F07F021A70C48D013CA4B239
:101E7000C4858CB90368DA6822F49072DA605A6912
:101E800022F001025A61202380F83A30FFF7C9FF9F
:101E9000204610BD022010BD002010BD704700007C
:101EA00003681A68D96870B5160704465D6907D1DA
:101EB00096065AD58D0658D5BDE87040FFF7B2BFDB
:101EC00015F0010002D111F4907F4ED0D30705D553
:101ED000CE0542BFE36B43F00103E363550704D52E
:101EE00018B1E36B43F00203E363930704D518B121
:101EF000E36B43F00403E363160704D518B1E36B07
:101F000043F00803E363E36B002B66D0950604D52A
:101F1000880602D52046FFF785FF23685B69E26BE0
:101F20001107204602D413F040051AD0FFF71EFE19
:101F300023685A69520610D55A69606B22F0400234
:101F40005A6150B1254B0365FEF746FB002844D08B
:101F5000606BBDE87040036D18472046FFF79EFF99
:101F600070BDFFF79BFFE56370BD160627D50D0614
:101F700025D594F83920212A2FD1A268B2F5805FA7
:101F8000226A0AD11188C1F308015960216909B98F
:101F9000023200E00132226203E0511C2162127819
:101FA0005A60E28C013A92B2E284B2B9DA6822F065
:101FB0008002DA60DA6842F04002DA6070BD5006F2
:101FC0000BD54A0609D5DA6822F04002DA602023F0
:101FD00084F839302046FFF723FF70BDE11F000869
:101FE00008B5806B0023C385C384FFF757FF08BD86
:101FF0008AB2002301460148FFF7C2BBD82800205F
:1020000008B5FEF771F908BD08B5024628B90748BA
:102010004FF40041FEF790FC08BD012804D14FF4B5
:1020200000410248FEF788FC08BD00BF00000240E6
:1020300008B5024620B906484021FEF77DFC08BDE0
:10204000012803D140210248FEF776FC08BD00BFFD
:10205000000C024008B5024620B906488021FEF770
:102060006BFC08BD012803D180210248FEF764FC07
:1020700008BD00BF000C02402C4B5A6810B522F07E
:102080003F0242F010025A605A6898B022F480026F
:102090005A6000220192196C41F0805119641B6C46
:1020A00003F080530193019B214B0292196841F484
:1020B000804119601B68129203F480430293029BD3
:1020C00002230C93012410230CA80F941093FEF705
:1020D00037FF014600B1FEE70F23089009900A90F0
:1020E0000B9007A80793FFF7F7F800B1FEE74FF44E
:1020F0008173049303A8032303940593FFF7D6F990
:10210000044600B1FEE7FFF79BF94FF47A73B0FB8A
:10211000F3F0FEF74BF90420FEF75EF92246214664
:102120004FF0FF30FEF702F918B010BD0038024042
:102130000070004070B5841E7E3034F8026F0D468A
:10214000002246FA02F303F0010307EE903A01324F
:10215000F8EEE77A102AE5EC017AF2D1A04201F11B
:102160004001EAD170BD00002DE9F043A1B0002488
:10217000874DFEF791F8FFF77FFF03942B6B85489F
:1021800043F004032B632B6B03F004030393039BC3
:1021900004942B6B43F001032B632B6B03F00103BF
:1021A0000493049B05942B6B43F010032B632B6B60
:1021B00003F010030593059B06942B6B43F0020379
:1021C0002B632B6B03F002030693069B07942B6B88
:1021D00043F008032B632B6B03F0080307930122E2
:1021E00048F2C001079BFEF7A7FB224640F20241DE
:1021F0006948FEF7A1FB10AE2246C0216748FEF7F2
:102200009BFB01273146664811944FF00408CDF836
:1022100040801297FEF7B0FA48F2C00331465D489D
:102220001093119712941394FEF7A6FA4FF480635B
:10223000314659481093119712941394FEF79CFA63
:10224000C023314655481093119712941394FEF70A
:1022500093FA02231093314611234F48119312949D
:102260001394FEF789FA02942B6B43F400132B634B
:102270002B6B4C4D03F40013029322462146102091
:10228000029BFEF753F81020FEF784F84648AC6036
:102290004FF4407385E809004FF47A532846EC6008
:1022A0002C616B61AC61EC612C62FEF76FFB00B1DD
:1022B000FEE73E4B3E4998604FF4827283E8060089
:1022C0004FF40072D860186158619A61D861186241
:1022D000586298620A221846DA62FFF714FA00B1CF
:1022E000FEE7344C344AA0604FF4E13384E80C003C
:1022F000E06020610C23A061E06120466361FFF78C
:1023000061FD00B1FEE7DFF8C0902C4BC9F8080072
:1023100089E88800484640F2E733C9F80C30FFF7F7
:10232000E7FB00B1FEE71090119031464846FFF7F9
:10233000F9FB00B1FEE7DFF89490214BC9F80030BB
:102340004846FEF75AF8024600B1FEE711903146C2
:102350004846CDF84080FEF790F800B1FEE7DFF880
:102360007080184BC8F8080088E88800404663234E
:10237000C8F80C30FFF7BCFB00B1FEE7202311903A
:10238000314640461093FFF7CDFB074610B3FEE7FA
:10239000003802400000024000100240000C0240E1
:1023A00000080240EC29002000380040D828002016
:1023B00000300140E41000200048004000100040C0
:1023C00000740040001400409C28002008280020D1
:1023D000B02900202B68DFF8F4902A221A62324BD1
:1023E0000F93324B0B93324B0C93324B0E930BA843
:1023F000314B0D9300F0CEFB00F048FA4FF0FF3068
:1024000000F0E0FB4FF064082C4B0A93204609973C
:102410008DF820808DF82180294CFFF7D3FC4346AE
:10242000402228492846284DFEF7C5FB2749254864
:10243000FFF780FE2F602760254FB8462368132BD7
:1024400030DC00233B60D8F800300D2B26DC2B68F5
:10245000204909EB8303D3ED007AFCEEE77A30469E
:10246000CDED017ABDF8042000F082FD0023099330
:1024700023680A9603EB83035B008DF820303B68EA
:1024800003EB83035B0008A88DF8213000F0B8FB54
:102490002B6801332B603B680133D3E7236801339A
:1024A0002360CBE7FEE700BF01200008F11F000812
:1024B000092000085520000831200008F0370008E6
:1024C00088000020302900208C000020A40000207B
:1024D00084000020F53700080268044B9A4204D1BA
:1024E0004FF480610248FEF72BBA7047001000409D
:1024F00000100240FEE708B50320FDF705FF0022AB
:1025000011466FF00B00FDF711FF002211466FF02E
:102510000A00FDF70BFF002211466FF00900FDF7DE
:1025200005FF002211466FF00400FDF7FFFE0022B8
:1025300011466FF00300FDF7F9FE002211466FF01F
:102540000100FDF7F3FE002211464FF0FF30BDE819
:102550000840FDF7EBBE000070B50268214B9A42BF
:1025600086B006463BD1002503F5E23300951A6C90
:102570001D481E4C42F000521A641B6C039503F078
:1025800000530093009B1023019301A9032302939E
:10259000FEF7F2F81649E56040234FF0606284E8E8
:1025A0000E004FF4806323614FF4006363612046A3
:1025B0004FF40053A361E56125626562FDF796FF64
:1025C00018B172210B48FFF795FF0022B460362046
:1025D0001146A663FDF7AAFE3620FDF7DBFE06B026
:1025E00070BD00BF00740040000002404415002090
:1025F00088600240F837000870B502681A4B9A42AA
:1026000086B02ED1002503F5003300951A6C1748CB
:1026100042F480421A641B6C039503F480430093D8
:1026200002240526009B0294082301A90193049427
:102630000596FEF7A1F84FF4805301A90C480193C9
:102640000294039504950596FEF796F84FF400530F
:1026500001A9074801930294039504940596FEF797
:102660008BF806B070BD00BF003800400008024083
:10267000000402407FB502680F4B9A4219D1002135
:1026800003F5843300915A6C0C4842F480525A642A
:102690005B6C039103F480530093009B38230193F8
:1026A000022302930323049301A905230593FEF754
:1026B00063F807B05DF804FB0030014000040240FD
:1026C00007B50368164A934211D10022154B0092B8
:1026D000196C41F0100119641B6C03F01003009396
:1026E00036201146009BFDF721FE362013E00E4AEE
:1026F000934212D100220B4B0192196C41F0200140
:1027000019641B6C03F02003019337201146019BD1
:10271000FDF70CFE3720FDF73DFE03B05DF804FB2E
:1027200000100040003802400014004010B502685C
:10273000144B9A4286B023D1002403F5F833009459
:10274000196C114841F4802119641B6C03F4802337
:102750000093009B4FF440630193022302930123F3
:1027600003930323049301A907230593FEF704F8B9
:10277000272022462146FDF7D9FD2720FDF70AFE36
:1027800006B010BD00480040000402407047FEE75C
:10279000FEE7FEE7FEE770477047704708B5FDF7B4
:1027A00095FDBDE80840FDF724BE00000148FDF797
:1027B00025BF00BF441500200148FFF771BB00BFD3
:1027C000E410002008B50448FDF72BFE0348BDE8DF
:1027D0000840FFF786B800BF082800209C2800208A
:1027E0000148FFF77EB800BFB02900200F49D1F89B
:1027F000883043F47003C1F888300D4B1A6800200C
:1028000042F001021A6098601A6822F0847222F481
:1028100080321A60074A5A601A6822F480221A60CD
:10282000D8604FF000638B60704700BF00ED00E0A0
:102830000038024010300024DFF834D0002103E0DB
:102840000C4B5B58435004310B480C4B42189A42D6
:10285000F6D30B4A02E0002342F8043B094B9A42AC
:10286000F9D3FFF7C3FF00F05DFBFFF77DFC704776
:10287000000002204C3A0008000000206800002000
:1028800068000020382A0020FEE7000080B582B0F2
:1028900000AF0023FB7100F05DF90021112000F072
:1028A000D5F90021B12000F0D1F90121012000F07B
:1028B000CDF901212C2000F0C9F901212D2000F0D3
:1028C000C5F90021B22000F0C1F90121012000F07A
:1028D000BDF901212C2000F0B9F901212D2000F0D3
:1028E000B5F90021B32000F0B1F90121012000F079
:1028F000ADF901212C2000F0A9F901212D2000F0D3
:10290000A5F90121012000F0A1F901212C2000F0FE
:102910009DF901212D2000F099F90021B42000F04B
:1029200095F90121072000F091F90021C02000F065
:102930008DF90121A22000F089F90121022000F087
:1029400085F90121842000F081F90021C12000F0E7
:102950007DF90121C52000F079F90021C22000F0A5
:1029600075F901210A2000F071F90121002000F021
:102970006DF90021C32000F069F901218A2000F0DF
:1029800065F901212A2000F061F90021C42000F03E
:102990005DF901218A2000F059F90121EE2000F0B3
:1029A00055F90021C52000F051F901210E2000F059
:1029B0004DF90021202000F049F900213A2000F0D3
:1029C00045F90121062000F041F900212A2000F0FC
:1029D0003DF90121002000F039F90121002000F02B
:1029E00035F90121002000F031F901217F2000F0AC
:1029F0002DF900212B2000F029F90121002000F001
:102A000025F90121002000F021F90121002000F02A
:102A10001DF901219F2000F019F90021E02000F0AC
:102A200015F90121022000F011F901211C2000F00C
:102A30000DF90121072000F009F90121122000F011
:102A400005F90121372000F001F90121322000F0C1
:102A5000FDF80121292000F0F9F801212D2000F0D6
:102A6000F5F80121292000F0F1F80121252000F0DE
:102A7000EDF801212B2000F0E9F80121392000F0C8
:102A8000E5F80121002000F0E1F80121012000F02B
:102A9000DDF80121032000F0D9F80121102000F019
:102AA000D5F80021E12000F0D1F80121032000F049
:102AB000CDF801211D2000F0C9F80121072000F008
:102AC000C5F80121062000F0C1F801212E2000F0F8
:102AD000BDF801212C2000F0B9F80121292000F0D7
:102AE000B5F801212D2000F0B1F801212E2000F0D1
:102AF000ADF801212E2000F0A9F80121372000F0C7
:102B0000A5F801213F2000F0A1F80121002000F0EC
:102B10009DF80121002000F099F80121022000F029
:102B200095F80121102000F091F80021132000F009
:102B30008DF80021292000F089F80021362000F0CE
:102B400085F80121A02000F081F8FB7918460837AC
:102B5000BD4680BD80B582B000AF0023FB710C4B39
:102B60001B68DB6800209847094B1B681B690A201B
:102B70009847074B1B68DB6801209847044B1B688C
:102B80001B690A209847FB7918460837BD4680BD67
:102B90009000002080B485B000AF78600023FB7304
:102BA0007B68002B03D0064A7B68136001E0022398
:102BB000FB73FB7B18461437BD465DF8047B7047FA
:102BC0009000002080B584B000AF786000237B7354
:102BD0004FF4A043FB818023A0220021002000F0BD
:102BE000ADF805E0786800F08DF8FB89013BFB81CA
:102BF000FB89002BF6D17B7B18461037BD4680BD84
:102C000080B586B000AF78600023FB757A6807F165
:102C1000080307CA83E8070007F10803184600F015
:102C200029F93B7A0133DBB23B723B6901333B61EB
:102C30003B691B781F2B04D93B691B785BB2002BC7
:102C4000EADAFB7D18461837BD4680BD80B584B0F2
:102C500000AF03460A46FB711346BB710023FB73AA
:102C6000154B1B685B6800209847BB79002B02D08E
:102C7000012B06D00BE0104B1B689B680020984787
:102C800008E00D4B1B689B680120984702E0022377
:102C9000FB7300BF084B1B681B68FA1D012110461F
:102CA0009847054B1B685B6801209847FB7B1846DB
:102CB0001037BD4680BD00BF9000002080B584B0B5
:102CC00000AF786039600023FB730D4B1B685B68B5
:102CD000002098470A4B1B689B6801209847084BC7
:102CE0001B681B68396878689847054B1B685B68E8
:102CF00001209847FB7B18461037BD4680BD00BFBA
:102D00009000002080B584B000AF78600023FB7392
:102D10007B681B0CDBB23B737B681B0ADBB27B73EB
:102D20007B68DBB2BB7307F10C0303211846FFF786
:102D3000C5FFFB7B18461037BD4680BD90B585B0FA
:102D400000AF0446084611461A462346FB71034667
:102D5000BB710B467B7113463B710023FB73FB7900
:102D60000133FB71BB790233BB7100212A20FFF7CD
:102D70006DFF01210020FFF769FFFB790121184653
:102D8000FFF764FF01210020FFF760FFFA797B79EC
:102D90001344DBB2013BDBB201211846FFF756FFBB
:102DA00000212B20FFF752FF01210020FFF74EFFEB
:102DB000BB7901211846FFF749FF01210020FFF7E9
:102DC00045FFBA793B791344DBB20133DBB2012111
:102DD0001846FFF73BFF00212C20FFF737FFFB7B56
:102DE00018461437BD4690BD80B584B000AF034689
:102DF0000A46FB711346BB710023FB7300212A2096
:102E0000FFF724FF01210020FFF720FFFB790121BC
:102E10001846FFF71BFF00212B20FFF717FF0121AA
:102E20000020FFF713FFBB7901211846FFF70EFFC3
:102E300000212C20FFF70AFFFB7B18461037BD4608
:102E400080BD00BF80B584B000AF03463A60FB711F
:102E50000B46BB710023FB73BA79FB791146184608
:102E6000FFF7C2FF3868FFF74DFFFB7B18461037AE
:102E7000BD4680BD80B584B000AF786000237B7311
:102E80000023FB730023BB7300233B730023FB73FE
:102E90003EE00023BB7329E000233B737B689B6803
:102EA0001B78A3F12002F97B1D4813469B001344B5
:102EB00003440B441B783B733A7BBB7B42FA03F31E
:102EC00003F00103002B08D07B6818787B685978E1
:102ED0007B685B681A46FFF7B5FF7B685B78013358
:102EE000DAB27B685A70BB7B0133BB73BB7B072BA9
:102EF000D2D97B685B78083BDAB27B685A707B6812
:102F00001B780133DAB27B681A70FB7B0133FB73E9
:102F1000FB7B042BBDD97B7B18461037BD4680BD9B
:102F20002C38000870B50E4B0E4CE41AA410002586
:102F30001E46A54204D056F8253098470135F8E7DB
:102F400000F046FC084C094BE41AA41000251E466C
:102F5000A54204D056F8253098470135F8E770BDF2
:102F6000443A0008443A0008483A0008443A000845
:102F70000EB400B59CB04FF402711DABADF8141047
:102F8000029006906FF000410A48049107914FF6B5
:102F9000FF7153F8042BADF816100068019302A9D5
:102FA00000F064F8029B00221A701CB05DF804EB7C
:102FB00003B07047640000202DE9F0478E689E4200
:102FC00082460C46914698463ED88A8912F4906F04
:102FD0003AD0256809696F1A6569022305EB450532
:102FE00095FBF3F57B1C43449D4238BF1D465305BA
:102FF0000FD5294600F03EFB064698B13A462169B6
:1030000000F0C4FAA38923F4906343F08003A38102
:1030100013E02A4600F08CFB064670B92169504641
:1030200000F0DAFA0C23CAF80030A38943F0400319
:10303000A3814FF0FF30BDE8F087266165613E4413
:10304000ED1B2660A5604646464528BF46463246EB
:103050004946206800F0A5FAA3689B1BA36023687B
:103060001E4426600020BDE8F08700002DE9F04FE7
:103070009DB0804603938B891C060D4616460DD5E0
:103080000B695BB9402100F0F5FA2860286118B996
:103090000C23C8F80030CDE040236B610023099376
:1030A00020238DF82930DFF89CB130238DF82A30A9
:1030B00037463C4614F8013B1BB9B7EB060910D064
:1030C00003E0252BF9D02746F3E74B463246294645
:1030D0004046FFF771FF013000F0A780099B4B4489
:1030E00009933B78002B00F0A08000234FF0FF32C3
:1030F00004930793059206938DF853301A93012693
:10310000052221784E48FDF763F8671C049B38B10F
:103110004B4A801A06FA00F0184304903C46EFE749
:10312000D90644BF20228DF853201A0744BF2B2212
:103130008DF8532022782A2A03D0079A00210A20EA
:103140000BE0039A111D12680391002A10DA524213
:1031500043F00200079204900BE0274601343B78CD
:10316000303B092B03D800FB02320121F5E701B106
:1031700007923B782E2B1ED17B782A2B0AD1039BFA
:103180001A1D1B680392002BB8BF4FF0FF330237A4
:10319000059310E000230593781C19460A2407467E
:1031A00001303A78303A092A03D804FB012101237F
:1031B000F5E703B10591032239782248FDF708F8B5
:1031C00040B14023CBEB000003FA00F0049B18430E
:1031D0000490013739781C488DF8281006227E1C8F
:1031E000FCF7F6FF88B1194B33B9039B073323F083
:1031F00007030833039314E003AB00932A46144BF0
:1032000004A94046AFF3008007E003AB00932A46D1
:103210000F4B04A9404600F093F8B0F1FF3F8246FF
:1032200003D0099B5344099342E7AB895B0601D461
:10323000099801E04FF0FF301DB0BDE8F08F00BFEE
:103240000E3A0008143A0008183A0008000000007E
:10325000B92F00082DE9F04791461F460A698B688F
:10326000DDF820809342B8BF1346C9F8003091F8CA
:10327000432006460C4612B10133C9F800302368DA
:10328000990642BFD9F800300233C9F800302568EA
:1032900015F0060510D104F1190A07E00123524682
:1032A00039463046C04701301AD00135E368D9F8B5
:1032B00000209B1A9D42F1DB94F8433022680033D2
:1032C00018BF012392060FD5E1185A1C302081F84F
:1032D0004300224494F8451082F84310023303E07F
:1032E0004FF0FF30BDE8F08704F143023946304625
:1032F000C0470130F4D02268D9F80050E36802F0EA
:103300000602042A08BF5D1B2269A3680CBF25EAD8
:10331000E57500259342C4BF9B1AED184FF00009D4
:103320001A344D4509D00123224639463046C0475C
:103330000130D5D009F10109F3E70020BDE8F0879D
:103340002DE9F04317460A7E85B06E2A9846064658
:103350000C460C9B01F1430E00F0AE8011D8632A9D
:1033600022D009D8002A00F0BB80582A40F0CA8039
:1033700081F84520834955E0642A1ED0692A1CD073
:10338000C0E0732A00F0B08009D86F2A2ED0702ACE
:1033900040F0B8800A6842F020020A603EE0752AD8
:1033A00024D0782A3AD0ADE01A6801F14205111D07
:1033B0001960136884F84230A8E021681A6811F097
:1033C000800F02D0111D196008E011F0400F02F1CA
:1033D0000401196002D0B2F9003000E01368002B3C
:1033E0003CDA2D225B4284F8432037E021681A68DA
:1033F00011F0800F02D0111D196007E011F0400F8D
:1034000002F10401196001D0138800E01368227EE4
:103410005C496F2A14BF0A2208221BE078225A490D
:1034200084F845202268186812F0800F00F1040526
:103430001D6003D1550601D5038800E00368D0075D
:1034400044BF42F0200222601BB9226822F0200211
:1034500022601022002084F8430001E049490A223A
:103460006568A560002D08DB206820F0040020605E
:103470002BB9002D7DD175460CE0002B79D0754617
:10348000B3FBF2F002FB1033CB5C05F8013D0346C1
:103490000028F5D1082A0BD12368DA0708D523695B
:1034A00062689A42DEBF302305F8013C05F1FF3522
:1034B000C5EB0E0323612EE008681A68496910F015
:1034C000800F03D0101D1860136808E010F0400F43
:1034D00002F104001860136801D0198000E019603F
:1034E00000232361754616E01A68111D19601568DE
:1034F000626800212846FCF76BFE08B1401B606043
:10350000636804E004F1420584F84220012323614A
:10351000002384F84330CDF800803B4603AA2146BF
:103520003046FFF797FE013002D14FF0FF3026E022
:1035300023692A4639463046C0470130F5D0236812
:103540009B0710D5002504F1190907E001234A461D
:1035500039463046C0470130E7D00135E368039A69
:103560009B1A9D42F2DBE068039B9842B8BF184665
:1035700005E00B7884F8423004F142058AE705B093
:10358000BDE8F0831F3A0008303A000810B5431E2A
:103590000A44914204D011F8014B03F8014FF8E7B7
:1035A00010BD884210B501EB020301D8421E0BE0AA
:1035B0009842FBD28118D21AD34204D013F8014D9D
:1035C00001F8014DF8E710BD994204D011F8014B04
:1035D00002F8014FF8E710BD38B50546002946D07E
:1035E00051F8043C0C1F002BB8BFE41800F0D6F8CB
:1035F0001F4A1368114613B96360146032E0A34296
:103600000ED92268A018834204BF18685B68636003
:1036100004BF121822600C6024E0A24203D81346B3
:103620005A68002AF9D118681918A1420BD12168EB
:10363000014458188242196014D1106852685A60C7
:10364000014419600EE002D90C232B600AE02168C6
:103650006018824204BF10685268626004BF091893
:1036600021605C602846BDE8384000F098B838BD5D
:103670009800002070B5CD1C25F0030508350C2DF1
:1036800038BF0C25002D064601DBA94202D90C23C8
:10369000336046E000F082F8234B1C681A4621464E
:1036A000A1B10B685B1B0ED40B2B03D90B60CC189C
:1036B000CD501EE08C420DBF63684B6863601360A1
:1036C00018BF0C4615E00C464968E9E7174C23681B
:1036D0001BB9304600F052F820602946304600F011
:1036E0004DF8431C18D0C41C24F00304A0420DD193
:1036F0002560304600F053F804F10B00231D20F044
:103700000700C31A0ED05A42E25070BD211A30464B
:1037100000F034F80130EBD10C233360304600F078
:103720003EF8002070BD00BF9800002094000020EB
:10373000F8B5074615460E4621B91146BDE8F840D2
:10374000FFF798BF1AB9FFF747FF2846F8BD00F00A
:1037500027F885420ED929463846FFF78BFF0446E5
:1037600050B131462A46FFF711FF31463846FFF780
:1037700033FF01E03046F8BD2046F8BD38B5064CB1
:10378000002305460846236000F014F8431C02D1CC
:10379000236803B12B6038BD342A0020704770477E
:1037A00051F8040C0028BEBF091851F8043CC01899
:1037B00004387047044B1968024609B90349196077
:1037C000186802441A6070479C000020382A0020C4
:1037D000F8B500BFF8BC08BC9E467047F8B500BFFE
:0837E000F8BC08BC9E467047CE
:1037E8000006101600061016484F4C4100256400CC
:1037F8002E2E5C5372635C73746D33326634787842
:103808005F68616C5F6D73702E63000000000000DC
:103818000000000102030406070809000000000177
:1038280002030400000000000000005F0000000721
:10383800000700147F147F14242A7F2A12231308F8
:10384800646236495522500005030000001C2241DD
:10385800000041221C0014083E081408083E08080D
:1038680000503000000808080808006060000020C8
:10387800100804023E5149453E00427F4000426123
:103888005149462141454B311814127F10274545AF
:1038980045393C4A494930017109050336494949C6
:1038A80036064949291E0036360000005636000003
:1038B800081422410014141414140041221408029C
:1038C80001510906324979413E7E1111117E7F4925
:1038D8004949363E414141227F4141221C7F4949A5
:1038E80049417F090909013E4149497A7F08080889
:1038F8007F00417F41002040413F017F0814224161
:103908007F404040407F020C027F7F0408107F3ECA
:103918004141413E7F090909063E4151215E7F0927
:10392800192946464949493101017F01013F404073
:10393800403F1F2040201F3F4038403F6314081479
:103948006307087008076151494543007F414100FA
:1039580002040810200041417F00040201020440D3
:1039680040404040000102040020545454787F48ED
:103978004444383844444420384444487F385454F4
:103988005418087E0901020C5252523E7F08040462
:103998007800447D40002040443D007F10284400CA
:1039A80000417F40007C041804787C0804047838BF
:1039B800444444387C14141408081414187C7C08F3
:1039C8000404084854545420043F4440203C4040D8
:1039D800207C1C2040201C3C4030403C44281028BF
:1039E800440C5050503C4464544C44000836410048
:1039F80000007F0000004136080010080810087811
:103A0800464146784300232D302B2000686C4C003B
:103A180065666745464700303132333435363738C6
:103A28003941424344454600303132333435363724
:0C3A3800383961626364656600000000BC
:043A4400B5010008C0
:043A480091010008E0
:103A4C000024F40000000000000000000000000052
:103A5C00000000000000000000000000000000005A
:103A6C00000000000C3A00080000000000000000FC
:103A7C00000000000000000000000000000000003A
:103A8C00000000000000000000000000000000002A
:103A9C00000000000000000000000000000000001A
:083AAC000000000004000020EE
:04000005080028398E
:00000001FF
