:020000040800F2
:1000000000000220ED1200084D12000853120008F3
:10001000591200085F120008651200080000000075
:100020000000000000000000000000006B1200084B
:1000300079120008000000008712000895120008DD
:100040003D1300083D1300083D1300083D13000850
:100050003D1300083D1300083D1300083D13000840
:100060003D1300083D1300083D1300083D13000830
:100070003D1300083D130008A11200083D130008BD
:10008000B51200083D1300083D1300083D13000899
:100090003D1300083D1300083D1300083D13000800
:1000A0003D1300083D1300083D1300083D130008F0
:1000B0003D1300083D1300083D1300083D130008E0
:1000C0003D1300083D1300083D1300083D130008D0
:1000D0003D1300083D1300083D1300083D130008C0
:1000E0003D1300083D1300083D1300083D130008B0
:1000F0003D1300083D1300083D1300083D130008A0
:100100003D1300083D1300083D1300083D1300088F
:100110003D1300083D1300083D1300083D1300087F
:100120003D1300083D1300083D1300083D1300086F
:100130003D1300083D1300083D1300083D1300085F
:100140003D1300083D1300083D1300083D1300084F
:100150003D1300083D1300083D1300083D1300083F
:100160003D1300083D1300083D1300083D1300082F
:100170003D1300083D1300083D1300080000000077
:080180003D1300083D130008C7
:1001880010B5054C237833B9044B13B10448AFF3C9
:1001980000800123237010BD8C00002000000000A7
:1001A800203F000808B5034B1BB103490348AFF3D0
:1001B800008008BD0000000090000020203F0008DB
:1001C80053B94AB9002908BF00281CBF4FF0FF31B6
:1001D8004FF0FF3000F06EB9ADF1080C6DE904CEB8
:1001E80000F006F8DDF804E0DDE9022304B070470A
:1001F8002DE9F047089D04468C46002B40F083808B
:100208008A42174647D9B2FA82F242B1C2F12000B7
:1002180024FA00F09140974040EA010C94404FEADC
:100228001748230CBCFBF8F61FFA87FE08FB16C11B
:1002380043EA014306FB0EF1994209D9FB1806F17E
:10024800FF3080F01981994240F21681023E3B440A
:100258005B1AA4B2B3FBF8F008FB103344EA03447A
:1002680000FB0EFEA64509D93C1900F1FF3380F0CA
:100278000581A64540F2028102383C4440EA064026
:10028800A4EB0E0400261DB1D4400023C5E90043A9
:100298003146BDE8F08702B9FFDEB2FA82F2002AE1
:1002A80050D1CB1B4FEA174E1FFA87F80126B3FB34
:1002B800FEFC210C0EFB1C3341EA034108FB0CF346
:1002C8008B4207D979180CF1FF3002D28B4200F229
:1002D800E9808446C91AA3B2B1FBFEF00EFB1011E7
:1002E80043EA014408FB00F8A04507D93C1900F18E
:1002F800FF3302D2A04500F2D9801846A4EB0804C7
:1003080040EA0C40BFE78B4209D9002D00F0B180CC
:100318000026C5E9000130463146BDE8F087B3FA4A
:1003280083F6002E4AD18B4202D3824200F2B88073
:10033800841A61EB030101208C46002DA8D0C5E981
:10034800004CA5E7C2F1200320FA03F6974001FA12
:1003580002F04FEA174ED9403043030CB1FBFEF6CA
:100368001FFA87F80EFB161143EA014306FB08F152
:10037800994204FA02F409D9FB1806F1FF3C80F00F
:100388008D80994240F28A80023E3B445B1A81B2DA
:10039800B3FBFEF00EFB103341EA034100FB08F308
:1003A8008B4207D9791800F1FF3C73D28B4271D97F
:1003B80002383944CB1A40EA064678E7C6F1200CE1
:1003C80003FA06F422FA0CF31C4320FA0CF701FA9C
:1003D80006F34FEA144E21FA0CF11F433B0CB1FB14
:1003E800FEF91FFA84F80EFB191143EA014109FBD3
:1003F80008FA8A4502FA06F200FA06F308D96118E3
:1004080009F1FF3048D28A4546D9A9F102092144A9
:10041800A1EB0A01BFB2B1FBFEF00EFB101147EAD7
:10042800014700FB08F8B84507D9E71900F1FF3183
:100438002ED2B8452CD90238274440EA0940A7EB08
:100448000807A0FB02894F45C64649461AD317D06C
:100458005DB1B3EB0E0267EB010707FA0CFCF24043
:100468004CEA0202F740C5E9002700263146BDE8FC
:10047800F0872E4628460BE70646E9E61846FDE6CD
:100488004345E5D2B8EB020E69EB04010138DFE71A
:100498000846D2E760468DE78146B9E7664675E7C4
:1004A80030464AE7ACF1020C394413E702383C44C1
:1004B80024E700BF704700BF80B487B000AF786002
:1004C8000023FB82024B3B610023FB73A8E100BFC2
:1004D80000000020FB7BA24A32F8133003F001032E
:1004E800002B04D03B691A88FB8A1344FB823B69C2
:1004F80002333B61FB7B9A4A32F81320FB7B52089C
:1005080091B2974A22F81310FB7B954A32F81330C0
:1005180003F00103002B04D03B691A88FB8A1344BB
:10052800FB823B6902333B61FB7B8D4A32F8132027
:10053800FB7B520891B28A4A22F81310FB7B884A47
:1005480032F8133003F00103002B04D03B691A88FA
:10055800FB8A1344FB823B6902333B61FB7B804A85
:1005680032F81320FB7B520891B27D4A22F813100F
:10057800FB7B7B4A32F8133003F00103002B04D0D5
:100588003B691A88FB8A1344FB823B6902333B614F
:10059800FB7B734A32F81320FB7B520891B2704AF6
:1005A80022F81310FB7B6E4A32F8133003F0010374
:1005B800002B04D03B691A88FB8A1344FB823B69F1
:1005C80002333B61FB7B664A32F81320FB7B5208FF
:1005D80091B2634A22F81310FB7B614A32F8133058
:1005E80003F00103002B04D03B691A88FB8A1344EB
:1005F800FB823B6902333B61FB7B594A32F813208B
:10060800FB7B520891B2564A22F81310FB7B544ADE
:1006180032F8133003F00103002B04D03B691A8829
:10062800FB8A1344FB823B6902333B61FB7B4C4AE8
:1006380032F81320FB7B520891B2494A22F8131072
:10064800FB7B474A32F8133003F00103002B04D038
:100658003B691A88FB8A1344FB823B6902333B617E
:10066800FB7B3F4A32F81320FB7B520891B23C4A8D
:1006780022F81310FB7B3A4A32F8133003F00103D7
:10068800002B04D03B691A88FB8A1344FB823B6920
:1006980002333B61FB7B324A32F81320FB7B520862
:1006A80091B22F4A22F81310FB7B2D4A32F81330EF
:1006B80003F00103002B04D03B691A88FB8A13441A
:1006C800FB823B6902333B61FB7B254A32F81320EE
:1006D800FB7B520891B2224A22F81310FB7B204A76
:1006E80032F8133003F00103002B04D03B691A8859
:1006F800FB8A1344FB823B6902333B61FB7B184A4C
:1007080032F81320FB7B520891B2154A22F81310D5
:10071800FB7B134A32F8133003F00103002B04D09B
:100728003B691A88FB8A1344FB823B6902333B61AD
:10073800FB7B0B4A32F81320FB7B520891B2084A24
:1007480022F81310FB7B064A32F8133003F001033A
:10075800002B07D03B691A88FB8A1344FB8201E00F
:10076800480200203B6902333B61FB7B3C4A32F87C
:100778001320FB7B520891B2394A22F81310FB7BF5
:10078800374A32F8133003F00103002B04D03B69D9
:100798001A88FB8A1344FB823B6902333B61FB7B6B
:1007A8002F4A32F81320FB7B520891B22C4A22F8C8
:1007B8001310FB7B2A4A32F8133003F00103002B95
:1007C80004D03B691A88FB8A1344FB823B690233D5
:1007D8003B61FB7B224A32F81320FB7B520891B223
:1007E8001F4A22F81310FB7B1D4A32F8133003F01E
:1007F8000103002B04D03B691A88FB8A1344FB824F
:100808003B6902333B61FB7B154A32F81320FB7BC3
:10081800520891B2124A22F81310FB7B0133FB7382
:10082800FB7B032B7FF656AEFB8A1B09FB820D4B25
:100838001B683F2B02DD0B4B00221A60094B1B681B
:100848000949FA8A21F81320064B1B680133054A27
:10085800136000BF1C37BD465DF8047B704700BFBE
:1008680048020020A80000200C01002080B487B0B6
:1008780000AF78600023FB82024B3B611123FB73BE
:10088800A8E100BF00000020FB7BA24A32F8133029
:1008980003F00103002B04D03B691A88FB8A134438
:1008A800FB823B6902333B61FB7B9A4A32F8132097
:1008B800FB7B520891B2974A22F81310FB7B954AAA
:1008C80032F8133003F00103002B04D03B691A8877
:1008D800FB8A1344FB823B6902333B61FB7B8D4AF5
:1008E80032F81320FB7B520891B28A4A22F813107F
:1008F800FB7B884A32F8133003F00103002B04D045
:100908003B691A88FB8A1344FB823B6902333B61CB
:10091800FB7B804A32F81320FB7B520891B27D4A58
:1009280022F81310FB7B7B4A32F8133003F00103E3
:10093800002B04D03B691A88FB8A1344FB823B696D
:1009480002333B61FB7B734A32F81320FB7B52086E
:1009580091B2704A22F81310FB7B6E4A32F81330BA
:1009680003F00103002B04D03B691A88FB8A134467
:10097800FB823B6902333B61FB7B664A32F81320FA
:10098800FB7B520891B2634A22F81310FB7B614A41
:1009980032F8133003F00103002B04D03B691A88A6
:1009A800FB8A1344FB823B6902333B61FB7B594A58
:1009B80032F81320FB7B520891B2564A22F81310E2
:1009C800FB7B544A32F8133003F00103002B04D0A8
:1009D8003B691A88FB8A1344FB823B6902333B61FB
:1009E800FB7B4C4A32F81320FB7B520891B2494AF0
:1009F80022F81310FB7B474A32F8133003F0010347
:100A0800002B04D03B691A88FB8A1344FB823B699C
:100A180002333B61FB7B3F4A32F81320FB7B5208D1
:100A280091B23C4A22F81310FB7B3A4A32F8133051
:100A380003F00103002B04D03B691A88FB8A134496
:100A4800FB823B6902333B61FB7B324A32F813205D
:100A5800FB7B520891B22F4A22F81310FB7B2D4AD8
:100A680032F8133003F00103002B04D03B691A88D5
:100A7800FB8A1344FB823B6902333B61FB7B254ABB
:100A880032F81320FB7B520891B2224A22F8131045
:100A9800FB7B204A32F8133003F00103002B04D00B
:100AA8003B691A88FB8A1344FB823B6902333B612A
:100AB800FB7B184A32F81320FB7B520891B2154A87
:100AC80022F81310FB7B134A32F8133003F00103AA
:100AD800002B04D03B691A88FB8A1344FB823B69CC
:100AE80002333B61FB7B0B4A32F81320FB7B520835
:100AF80091B2084A22F81310FB7B064A32F81330E9
:100B080003F00103002B07D03B691A88FB8A1344C2
:100B1800FB8201E0480200203B6902333B61FB7B1A
:100B28003C4A32F81320FB7B520891B2394A22F82A
:100B38001310FB7B374A32F8133003F00103002B04
:100B480004D03B691A88FB8A1344FB823B69023351
:100B58003B61FB7B2F4A32F81320FB7B520891B292
:100B68002C4A22F81310FB7B2A4A32F8133003F080
:100B78000103002B04D03B691A88FB8A1344FB82CB
:100B88003B6902333B61FB7B224A32F81320FB7B33
:100B9800520891B21F4A22F81310FB7B1D4A32F803
:100BA800133003F00103002B04D03B691A88FB8A39
:100BB8001344FB823B6902333B61FB7B154A32F8E5
:100BC8001320FB7B520891B2124A22F81310FB7BC8
:100BD8000133FB73FB7B132B7FF656AEFB8A1B0995
:100BE800FB820D4B1B683F2B02DD0B4B00221A606A
:100BF800094B1B680949FA8A21F81320064B1B6820
:100C08000133054A136000BF1C37BD465DF8047BFD
:100C1800704700BF48020020A80000200C010020F7
:100C280080B582B002AF00F087FB00F029F800F031
:100C380047F900F01DF900F0B7F800F08BF800F064
:100C4800E1F8112209490A4801F080FD094802F03B
:100C5800B3FF0021084800F014FD0023009340234F
:100C6800064A0021044800F05FFDFEE74802002024
:100C78008C02002000020020EC0100200C01002062
:100C880080B594B000AF07F1200330220021184648
:100C980003F03AF907F10C0300221A605A609A60CF
:100CA800DA601A610023BB60284B1B6C274A43F0AB
:100CB80080531364254B1B6C03F08053BB60BB68E7
:100CC80000237B60224B1B68214A43F48043136056
:100CD8001F4B1B6803F480437B607B6801233B62E6
:100CE8004FF480337B620223BB634FF48003FB63C2
:100CF80005233B64D2237B640223BB640423FB6487
:100D080007F12003184602F087F90346002B01D0AB
:100D180000F01AF90F23FB6002233B6100237B617B
:100D28004FF4A053BB614FF48053FB6107F10C03F0
:100D38000521184602F0E8FB0346002B01D000F01D
:100D480003F900BF5037BD4680BD00BF00380240E0
:100D58000070004080B582B000AF3B4600221A60A8
:100D68005A600F4B0F4A1A600D4800F068FC0346A2
:100D7800002B01D000F0E8F804233B6000237B60DF
:100D88003B4600221946064800F0BAFD0346002BF0
:100D980001D000F0D9F800BF0837BD4680BD00BFBC
:100DA800EC0100200074004080B500AF124B134ADC
:100DB8001A60114B4FF440725A600F4B00229A6030
:100DC8000D4B0322DA600C4B00221A610A4B0C4AC5
:100DD8005A61094B00229A61074B0022DA61064BDF
:100DE80000221A62044801F071FB0346002B01D06F
:100DF80000F0AAF800BF80BD8C0200200038004037
:100E0800A009010080B582B000AF3B4600221A60FD
:100E18005A60154B154A1A60134B4FF403725A6007
:100E2800114B00229A60104B0922DA600E4B002207
:100E38009A610D4802F070FE0346002B01D000F0C5
:100E480083F820233B6000237B603B461946064815
:100E580002F0BAFF0346002B01D000F075F800BF7E
:100E68000837BD4680BD00BF0002002000100040CA
:100E780080B582B000AF00237B60104B1B6B0F4A1C
:100E880043F4001313630D4B1B6B03F400137B60D7
:100E98007B68002200210E2000F09BFB0E2000F052
:100EA800B4FB00220021102000F093FB102000F07A
:100EB800ACFB00BF0837BD4680BD00BF003802400C
:100EC80080B485B000AF0023FB601E4B1B6B1D4A2E
:100ED80043F0800313631B4B1B6B03F08003FB6021
:100EE800FB680023BB60174B1B6B164A43F00403D7
:100EF8001363144B1B6B03F00403BB60BB68002334
:100F08007B60104B1B6B0F4A43F0010313630D4BBF
:100F18001B6B03F001037B607B6800233B60094B7C
:100F28001B6B084A43F002031363064B1B6B03F069
:100F380002033B603B6800BF1437BD465DF8047B85
:100F4800704700BF0038024080B400AF72B600BFDF
:100F5800FEE7000080B483B000AF00237B60104B35
:100F68005B6C0F4A43F4804353640D4B5B6C03F492
:100F780080437B607B6800233B60094B1B6C084AFD
:100F880043F080531364064B1B6C03F080533B60A3
:100F98003B6800BF0C37BD465DF8047B704700BF57
:100FA8000038024080B58AB000AF786007F11403BA
:100FB80000221A605A609A60DA601A617B681B68BE
:100FC8002F4A934258D100233B612E4B1B6C2D4A6C
:100FD80043F0005313642B4B1B6C03F000533B612D
:100FE8003B690023FB60274B1B6B264A43F0010338
:100FF8001363244B1B6B03F00103FB60FB68102396
:101008007B610323BB610023FB6107F114031946CD
:101018001D4801F0BFF81D4B1D4A1A601B4B4FF0CD
:1010280060625A60194B40229A60184B0022DA60BD
:10103800164B4FF480621A61144B4FF400625A61E8
:10104800124B4FF400529A61104B4FF48072DA61E0
:101058000E4B00221A620D4B00225A620B4800F018
:1010680029FD0346002B01D0FFF76EFF7B68074A76
:101078009A60064A7B68936300BF2837BD4680BDE7
:101088000074004000380240000002408C0100203B
:101098008860024080B58EB000AF786007F1240305
:1010A80000221A605A609A60DA601A6107F1140324
:1010B80000221A605A609A60DA607B681B684A4AA4
:1010C800934240F08C8001237B61C023BB610223E3
:1010D800FB6107F11403184602F0DEFB0346002B00
:1010E80001D0FFF731FF00233B61404B1B6C3F4AA7
:1010F80043F4804313643D4B1B6C03F480433B6112
:101108003B690023FB60394B1B6B384A43F00403EF
:101118001363364B1B6B03F00403FB60FB6800236F
:10112800BB60324B1B6B314A43F0020313632F4BF6
:101138001B6B03F00203BB60BB6808237B620223BE
:10114800BB620023FB6200233B6305237B6307F13B
:1011580024031946264801F01DF84FF440537B62DA
:101168000223BB620023FB6200233B6305237B63EE
:1011780007F1240319461F4801F00CF81E4B1F4ABB
:101188001A601D4B00225A601B4B00229A601A4BB2
:101198000022DA60184B4FF480621A61164B4FF444
:1011A80000625A61144B4FF400529A61124B4FF48B
:1011B8008072DA61104B4FF400321A620E4B002233
:1011C8005A620D4800F076FC0346002B01D0FFF769
:1011D800BBFE7B68084ADA63074A7B68936300BFF3
:1011E8003837BD4680BD00BF003800400038024097
:1011F8000008024000040240AC0000205860024091
:1012080080B485B000AF78607B681B680B4A934256
:101218000DD10023FB600A4B1B6C094A43F01003F5
:101228001364074B1B6C03F01003FB60FB6800BFE3
:101238001437BD465DF8047B704700BF00100040BE
:101248000038024080B400AFFEE780B400AFFEE78C
:1012580080B400AFFEE780B400AFFEE780B400AF13
:10126800FEE780B400AF00BFBD465DF8047B704761
:1012780080B400AF00BFBD465DF8047B704780B402
:1012880000AF00BFBD465DF8047B704780B500AF76
:1012980000F0A4F800BF80BD80B500AF024800F0A0
:1012A8000FFD00BF80BD00BFAC00002080B500AFBF
:1012B800024800F005FD00BF80BD00BF8C01002082
:1012C80080B400AF064BD3F88830054A43F4700366
:1012D800C2F8883000BFBD465DF8047B704700BF88
:1012E80000ED00E0DFF834D00D480E490E4A002327
:1012F80002E0D458C4500433C4188C42F9D30B4AC2
:101308000B4C002301E013600432A242FBD3FFF729
:10131800D7FF02F0D5FDFFF783FC704700000220DD
:10132800000000208C000020603F00088C00002096
:10133800D8020020FEE7000080B500AF0E4B1B6806
:101348000D4A43F4007313600B4B1B680A4A43F4BD
:1013580080631360084B1B68074A43F4807313606B
:10136800032000F02BF90F2000F008F8FFF7F2FD3A
:101378000023184680BD00BF003C024080B582B003
:1013880000AF7860124B1A68124B1B7819464FF45D
:101398007A73B3FBF1F3B2FBF3F3184600F043F9A9
:1013A8000346002B01D001230EE07B680F2B0AD8DF
:1013B800002279684FF0FF3000F00BF9064A7B688D
:1013C8001360002300E0012318460837BD4680BD9E
:1013D80080000020880000208400002080B400AF36
:1013E800064B1B781A46064B1B681344044A1360C5
:1013F80000BFBD465DF8047B704700BF8800002031
:10140800D402002080B400AF034B1B681846BD46C9
:101418005DF8047B704700BFD402002080B485B01B
:1014280000AF78607B6803F00703FB600C4BDB6858
:10143800BB60BA684FF6FF031340BB60FB681A0233
:10144800BB68134343F0BF6343F40033BB60044AF3
:10145800BB68D36000BF1437BD465DF8047B704796
:1014680000ED00E080B400AF044BDB681B0A03F01A
:1014780007031846BD465DF8047B704700ED00E0A1
:1014880080B483B000AF0346FB7197F90730002B97
:101498000BDBFB7903F01F02074997F907305B095B
:1014A800012000FA02F241F8232000BF0C37BD46A4
:1014B8005DF8047B704700BF00E100E080B483B0B2
:1014C80000AF03463960FB7197F90730002B0ADB40
:1014D8003B68DAB20C4997F907301201D2B20B44D3
:1014E80083F800230AE03B68DAB20849FB7903F085
:1014F8000F03043B1201D2B20B441A7600BF0C371B
:10150800BD465DF8047B704700E100E000ED00E0B7
:1015180080B489B000AFF860B9607A60FB6803F006
:101528000703FB61FB69C3F10703042B28BF0423EE
:10153800BB61FB690433062B02D9FB69033B00E05E
:1015480000237B614FF0FF32BB6902FA03F3DA43F1
:10155800BB681A407B699A404FF0FF317B6901FAFA
:1015680003F3D9437B680B40134318462437BD4621
:101578005DF8047B7047000080B582B000AF7860EA
:101588007B68013BB3F1807F01D301230FE00A4A56
:101598007B68013B53600F214FF0FF30FFF78EFF50
:1015A800054B00229A60044B07221A600023184654
:1015B8000837BD4680BD00BF10E000E080B582B0AE
:1015C80000AF78607868FFF729FF00BF0837BD468D
:1015D80080BD80B586B000AF0346B9607A60FB7302
:1015E80000237B61FFF73EFF78617A68B968786904
:1015F800FFF78EFF024697F90F3011461846FFF79E
:101608005DFF00BF1837BD4680BD80B582B000AF12
:101618000346FB7197F907301846FFF731FF00BF03
:101628000837BD4680BD80B582B000AF7860786865
:10163800FFF7A2FF034618460837BD4680BD80B5B0
:1016480082B000AF78607B68002B01D1012314E0E1
:101658007B681B79DBB2002B05D17B6800225A71AD
:101668007868FFF79FFC7B6802221A717B6800226A
:101678001A617B6801221A71002318460837BD4693
:1016880080BD80B483B000AF786039607B685B79D7
:10169800012B01D1022340E07B6801225A717B684B
:1016A80002221A717B681B6819683B6803F01003F3
:1016B80001229A407B681B680A431A603B68002B2A
:1016C8000FD17B681B681B6803F03C033C2B1DD1C2
:1016D8007B681B685A687B681B6842F001025A6085
:1016E80014E07B681B681B6803F470123B6803F006
:1016F80010033C2101FA03F39A4207D17B681B6867
:101708005A687B681B6842F002025A607B680122B3
:101718001A717B6800225A71002318460C37BD469F
:101728005DF8047B7047000080B586B000AFF860B4
:10173800B9607A603B600023FB7500233B61FB685E
:101748005B79012B01D10223ABE0FB6801225A71BE
:10175800FB6802221A71BB68002B2FD1FB689B68BB
:10176800524ADA63FB689B68514A1A64FB689B68B3
:10177800504ADA64FB681B681A68FB681B6842F405
:1017880080521A603B6A082B13D03B6A082B45D855
:101798003B6A002B03D03B6A042B05D03EE0FB6874
:1017A8001B6808333B613CE0FB681B680C333B61FA
:1017B80037E0FB681B6810333B6132E0FB68DB688D
:1017C8003D4ADA63FB68DB683C4A1A64FB68DB68FD
:1017D8003B4ADA64FB681B681A68FB681B6842F0BE
:1017E80080521A603B6A082B13D03B6A082B17D823
:1017F8003B6A002B03D03B6A042B05D010E0FB6842
:101808001B6814333B610CE0FB681B6818333B61B1
:1018180007E0FB681B681C333B6102E000BF00E087
:1018280000BFBB68002B11D1FB681B681A68FB68F6
:101838001B6842F400521A60FB68986879683B6834
:101848003A6900F0E5F90346FB7510E0FB681B6890
:101858001A68FB681B6842F000521A60FB68D86877
:1018680079683B683A6900F0D3F90346FB75FB6871
:1018780000225A71FB7D002B0CD1FB681B6819688C
:10188800BB6803F0100301229A40FB681B680A43F7
:101898001A6005E0FB681B6943F00402FB681A61E3
:1018A800FB7D18461837BD4680BD00BFA719000844
:1018B800C9190008E51900084F1A0008711A00082C
:1018C8008D1A000880B483B000AF786000BF0C3771
:1018D800BD465DF8047B704780B483B000AF786084
:1018E80000BF0C37BD465DF8047B704780B483B0F9
:1018F80000AF786000BF0C37BD465DF8047B7047C9
:1019080080B487B000AFF860B9607A60FB685B7933
:10191800012B01D102233CE0FB6801225A71FB68CC
:1019280002221A71FB681B681B687B617B6803F0E5
:10193800100340F6FE7202FA03F3DB437A691340A0
:101948007B61BB681A68BB685B6813433B617B6853
:1019580003F010033A6902FA03F37A6913437B61CF
:10196800FB681B687A691A60FB681B6819687B68E2
:1019780003F01003C02202FA03F3DA43FB681B6882
:101988000A401A60FB6801221A71FB6800225A712A
:10199800002318461C37BD465DF8047B704780B5A8
:1019A80084B000AF78607B689B6BFB60F868FFF7DA
:1019B80089FFFB6801221A7100BF1037BD4680BD40
:1019C80080B584B000AF78607B689B6BFB60F8687B
:1019D800FFF782FF00BF1037BD4680BD80B584B0D9
:1019E80000AF78607B689B6BFB60FB681B6943F00A
:1019F8000402FB681A61F868FFF778FFFB680122A8
:101A08001A7100BF1037BD4680BD80B483B000AFE7
:101A1800786000BF0C37BD465DF8047B704780B422
:101A280083B000AF786000BF0C37BD465DF8047B1B
:101A3800704780B483B000AF786000BF0C37BD46F4
:101A48005DF8047B704780B584B000AF78607B6830
:101A58009B6BFB60F868FFF7D8FFFB6801221A71DF
:101A680000BF1037BD4680BD80B584B000AF786038
:101A78007B689B6BFB60F868FFF7D1FF00BF1037EE
:101A8800BD4680BD80B584B000AF78607B689B6B35
:101A9800FB60FB681B6943F00402FB681A61F86885
:101AA800FFF7C7FFFB6801221A7100BF1037BD4658
:101AB80080BD000080B586B000AF786000237B61F0
:101AC800FFF7A0FC38617B68002B01D1012399E066
:101AD8007B68022283F835207B68002283F8342053
:101AE8007B681B681A687B681B6822F001021A6011
:101AF8000FE0FFF787FC02463B69D31A052B08D98C
:101B08007B6820225A657B68032283F835200323EB
:101B180078E07B681B681B6803F00103002BE8D1A1
:101B28007B681B681B687B617A69384B13407B6153
:101B38007B685A687B689B681A437B68DB681A4332
:101B48007B681B691A437B685B691A437B689B69DE
:101B58001A437B68DB691A437B681B6A13437A69FB
:101B680013437B617B685B6A042B07D17B68DA6A65
:101B78007B681B6B13437A6913437B617B681B6823
:101B88007A691A607B681B685B697B617B6923F0F3
:101B980007037B617B685B6A7A6913437B617B68B7
:101BA8005B6A042B17D17B689B6A7A6913437B6154
:101BB8007B68DB6A002B0ED0786800F06FFA03466A
:101BC800002B08D07B6840225A657B68012283F885
:101BD8003520012316E07B681B687A695A617868AA
:101BE80000F026FA0346FB607B68DB6D3F229A40D3
:101BF800FB689A607B6800225A657B68012283F83B
:101C08003520002318461837BD4680BD3F8010F0A8
:101C180080B586B000AFF860B9607A603B60002399
:101C2800FB75FB689B6D3B61FB6893F83430012BB7
:101C380001D1022340E0FB68012283F83420FB68CD
:101C480093F83530DBB2012B2FD1FB68022283F8E1
:101C58003520FB6800225A653B687A68B968F868DD
:101C680000F0B8F9FB68DB6D3F229A403B699A6047
:101C7800FB681B681A68FB681B6842F016021A604A
:101C8800FB681B6C002B07D0FB681B681A68FB6895
:101C98001B6842F008021A60FB681B681A68FB6838
:101CA8001B6842F001021A6005E0FB68002283F815
:101CB80034200223FB75FB7D18461837BD4680BDCE
:101CC80080B586B000AF78600023BB60924B1B687C
:101CD800924AA2FB03239B0A7B617B689B6D3B6155
:101CE8003B691B68FB607B68DB6D08229A40FB68D8
:101CF8001340002B1AD07B681B681B6803F0040391
:101D0800002B13D07B681B681A687B681B6822F05D
:101D180004021A607B68DB6D08229A403B699A606E
:101D28007B685B6D43F001027B685A657B68DB6DFD
:101D380001229A40FB681340002B12D07B681B6875
:101D48005B6903F08003002B0BD07B68DB6D0122FD
:101D58009A403B699A607B685B6D43F002027B683E
:101D68005A657B68DB6D04229A40FB681340002BA0
:101D780012D07B681B681B6803F00203002B0BD092
:101D88007B68DB6D04229A403B699A607B685B6DD7
:101D980043F004027B685A657B68DB6D10229A4029
:101DA800FB681340002B43D07B681B681B6803F05B
:101DB8000803002B3CD07B68DB6D10229A403B69FE
:101DC8009A607B681B681B6803F48023002B18D07B
:101DD8007B681B681B6803F40023002B08D17B6811
:101DE8001B6C002B24D07B681B6C786898471FE01D
:101DF8007B689B6C002B1BD07B689B6C7868984732
:101E080016E07B681B681B6803F48073002B07D1FE
:101E18007B681B681A687B681B6822F008021A60D6
:101E28007B681B6C002B03D07B681B6C7868984719
:101E38007B68DB6D20229A40FB681340002B00F082
:101E48008E807B681B681B6803F01003002B00F072
:101E580086807B68DB6D20229A403B699A607B68AC
:101E680093F83530DBB2052B36D17B681B681A68CE
:101E78007B681B6822F016021A607B681B685A6927
:101E88007B681B6822F080025A617B681B6C002B00
:101E980003D17B689B6C002B07D07B681B681A6892
:101EA8007B681B6822F008021A607B68DB6D3F22A2
:101EB8009A403B699A607B68012283F835207B68E9
:101EC800002283F834207B681B6D002B7DD07B6853
:101ED8001B6D7868984778E07B681B681B6803F47B
:101EE8008023002B1CD07B681B681B6803F400232D
:101EF800002B08D17B685B6C002B30D07B685B6C57
:101F0800786898472BE07B68DB6B002B27D07B68D1
:101F1800DB6B7868984722E080000020B5814E1B73
:101F28007B681B681B6803F48073002B0FD17B68E8
:101F38001B681A687B681B6822F010021A607B68AD
:101F4800012283F835207B68002283F834207B68DF
:101F5800DB6B002B03D07B68DB6B786898477B686A
:101F68005B6D002B32D07B685B6D03F00103002BA7
:101F780022D07B68052283F835207B681B681A68A5
:101F88007B681B6822F001021A60BB680133BB60E2
:101F98007A699A4207D37B681B681B6803F00103C0
:101FA800002BF2D100E000BF7B68012283F83520C6
:101FB8007B68002283F834207B68DB6C002B05D01B
:101FC8007B68DB6C7868984700E000BF1837BD462F
:101FD80080BD00BF80B485B000AFF860B9607A609A
:101FE8003B60FB681B681A68FB681B6822F4802248
:101FF8001A60FB681B683A685A60FB689B68402B4C
:1020080008D1FB681B687A689A60FB681B68BA6825
:10201800DA6007E0FB681B68BA689A60FB681B68AF
:102028007A68DA6000BF1437BD465DF8047B7047F4
:1020380080B485B000AF78607B681B68DBB2103B6A
:10204800144AA2FB03231B09FB60134AFB681344D1
:102058001B781A467B68DA65FB68032B09D97B680D
:102068001B6823F47F7323F003031A1D7B689A65AA
:1020780007E07B681B6823F47F7323F003037A6807
:1020880093657B689B6D18461437BD465DF8047BE5
:10209800704700BFABAAAAAA483F000880B485B021
:1020A80000AF78600023FB737B689B6ABB607B682A
:1020B8009B69002B1FD1BB68032B56D801A252F88D
:1020C80023F000BFDD200008EF200008DD20000815
:1020D800732100087B68DB6A03F08073002B46D00D
:1020E8000123FB7343E07B68DB6AB3F1C07F40D117
:1020F8000123FB733DE07B689B69B3F5005F21D149
:10210800BB68032B37D801A252F823F02521000819
:102118002B210008252100083D2100080123FB731D
:1021280030E07B68DB6A03F08073002B25D0012345
:10213800FB7322E07B68DB6AB3F1C07F1FD1012308
:10214800FB731CE0BB68022B03D9BB68032B03D0CD
:1021580018E00123FB7315E07B68DB6A03F08073EA
:10216800002B0ED00123FB730BE000BF0AE000BF79
:1021780008E000BF06E000BF04E000BF02E000BFC7
:1021880000E000BFFB7B18461437BD465DF8047BB2
:10219800704700BF80B489B000AF78603960002311
:1021A8007B6100233B610023BB610023FB616BE182
:1021B8000122FB6902FA03F37B613B681B687A69B9
:1021C80013403B613A697B699A4240F05A813B6807
:1021D8005B6803F00303012B05D03B685B6803F0E1
:1021E8000303022B30D17B689B68BB61FB695B00F2
:1021F800032202FA03F3DB43BA691340BB613B686D
:10220800DA68FB695B0002FA03F3BA691343BB613E
:102218007B68BA699A607B685B68BB610122FB696D
:1022280002FA03F3DB43BA691340BB613B685B689E
:102238001B0903F00102FB6902FA03F3BA691343AD
:10224800BB617B68BA695A603B685B6803F003034B
:10225800032B17D07B68DB68BB61FB695B0003223B
:1022680002FA03F3DB43BA691340BB613B689A681F
:10227800FB695B0002FA03F3BA691343BB617B682D
:10228800BA69DA603B685B6803F00303022B23D169
:10229800FB69DA087B68083253F82230BB61FB69B6
:1022A80003F007039B000F2202FA03F3DB43BA692A
:1022B8001340BB613B681A69FB6903F007039B0085
:1022C80002FA03F3BA691343BB61FB69DA087B6856
:1022D8000832B96943F822107B681B68BB61FB6947
:1022E8005B00032202FA03F3DB43BA691340BB61C4
:1022F8003B685B6803F00302FB695B0002FA03F3C7
:10230800BA691343BB617B68BA691A603B685B684A
:1023180003F44033002B00F0B4800023FB60604BD3
:102328005B6C5F4A43F4804353645D4B5B6C03F41E
:102338008043FB60FB685B4AFB699B08023352F8E9
:102348002330BB61FB6903F003039B000F2202FAF1
:1023580003F3DB43BA691340BB617B68524A93427B
:102368002BD07B68514A934225D07B68504A9342D0
:102378001FD07B684F4A934219D07B684E4A9342DC
:1023880013D07B684D4A93420DD07B684C4A9342E8
:1023980007D07B684B4A934201D107230EE00823FC
:1023A8000CE006230AE0052308E0042306E00323E3
:1023B80004E0022302E0012300E00023FA6902F0AE
:1023C800030292009340BA691343BB613549FB6924
:1023D8009B080233BA6941F823203B4B1B68BB6159
:1023E8003B69DB43BA691340BB613B685B6803F434
:1023F8008033002B03D0BA693B691343BB61324A6F
:10240800BB691360304B5B68BB613B69DB43BA69EE
:102418001340BB613B685B6803F40033002B03D0B7
:10242800BA693B691343BB61274ABB695360264BB2
:102438009B68BB613B69DB43BA691340BB613B687E
:102448005B6803F48013002B03D0BA693B6913431C
:10245800BB611D4ABB6993601B4BDB68BB613B6971
:10246800DB43BA691340BB613B685B6803F4001344
:10247800002B03D0BA693B691343BB61124ABB699D
:10248800D360FB690133FB61FB690F2B7FF690AECC
:1024980000BF00BF2437BD465DF8047B704700BF0E
:1024A80000380240003801400000024000040240A9
:1024B80000080240000C02400010024000140240D4
:1024C80000180240001C0240003C014080B588B062
:1024D80000AF78607B68002B01D1012328E17B687D
:1024E80093F84130DBB2002B09D17B68002283F8D6
:1024F80040207B68904A5A637868FEF7CBFD7B687A
:10250800022283F841207B681B68DB697A681268BD
:1025180023F47B6323F00F03D3617B681B680222DB
:102528001A627B685B69022B60D07B68DB68002BD2
:1025380002D110237B6101E020237B617B689B68CB
:10254800202B02D87B695B007B61012001F086FAB1
:10255800F8607B681B69B3F5007F25D17B68DB6871
:10256800002B10D07B699B00FA68B2FBF3F213468C
:102578009B0013445B001A467B685B69B2FBF3F36C
:1025880005333B611FE07B69DB00FA68B2FBF3F2BD
:1025980013469B0013445B001A467B685B69B2FBD9
:1025A800F3F305333B610EE0FA687B69B2FBF3F2A3
:1025B80013469B0013445B001A467B685B69B2FBB9
:1025C800F3F305333B613B695C4AA2FB0323DB0859
:1025D8003B613B6903F00103BB613A69BB69D31AEC
:1025E8005B08FB61BB691B02BB6103E00223FB6163
:1025F8000023BB61FB69012B02D9FB69FF2B07D9BB
:102608007B685B6C43F010027B685A6401238FE09F
:102618007B681A69BB6942EA03017B681B68FA692F
:102628000A431A627B681B68DB6923F47B6323F027
:102638000F037A6851687A68926811437A68D26899
:1026480011437A6892690A431A437B681B6842F40B
:102658000062DA617B681B6A012B61D17B68384AAA
:102668005A637B681B68374A934201D1364B01E0B5
:102678004FF04023DB697A68126832498A4201D1F7
:10268800314A01E04FF0402223F47B6323F00F032B
:10269800D3617B681B682B4A934201D12A4B01E026
:1026A8004FF0402302221A627B681B68254A934236
:1026B80001D1254B01E04FF04023DB697B817B682A
:1026C8005B68B3F5007F03D07B685B68002B03D1A0
:1026D8004FF480733B6101E000233B613B699AB290
:1026E8007B689B689BB213439AB27B68DB689BB29A
:1026F80013439AB27B689B699BB213439AB27B8956
:1027080013439BB243F400637B817B681B680D4ACB
:10271800934201D10C4B01E04FF040237A89DA61F2
:102728007B6800225A647B68012283F841200023D9
:1027380018462037BD4680BD592A0008CDCCCCCCE0
:102748006D2B0008003800400034004080B586B08A
:1027580000AFF860B9601346FB80BB68002B02D05D
:10276800FB88002B01D10123A1E0FB6893F84030DE
:10277800DBB2012B01D1022399E0FB68012283F827
:102788004020FB6893F84130DBB2012B05D0FB6891
:10279800002283F84020022389E0FB68042283F8A2
:1027A8004120FB6800225A64FB68BA68DA62FB6859
:1027B8001B68DB6903F007037B617B69032B02D08D
:1027C8007B69052B0AD1FB885B009AB2FB681A86E5
:1027D800FB885B009AB2FB685A8605E0FB68FA88BA
:1027E8001A86FB68FA885A86FB68DB6B324A1A64D9
:1027F800FB68DB6B314ADA63FB68DB6B304ADA640F
:10280800FB681B68DB6903F44073B3F5407F0AD1AA
:1028180000233B61FB681B68DB683B61FB681B6846
:102828009B683B613B69FB68D86BFB681B680C3392
:102838001946FB68DB6A1A46FB681B8E9BB2FFF7DA
:10284800E7F90346002B0FD0FB685B6C43F00802E6
:10285800FB685A64FB68012283F84120FB68002268
:1028680083F84020012322E0FB681B68DB6903F43E
:102878008063002B07D1FB681B68DA69FB681B685B
:1028880042F48062DA61FB681B685B6803F001034D
:10289800002B07D1FB681B685A68FB681B6842F06D
:1028A80001025A60FB68002283F840200023184682
:1028B8001837BD4680BD00BF37290008F528000835
:1028C8005329000880B483B000AF786000BF0C378C
:1028D800BD465DF8047B704780B483B000AF786074
:1028E80000BF0C37BD465DF8047B704780B584B0E7
:1028F80000AF78607B689B6BFB607B68DB69002BB3
:102908000ED1FB681B685A68FB681B6822F001023D
:102918005A60FB6800225A86FB68012283F841202E
:10292800F868FDF7A3FF00BF1037BD4680BD80B52E
:1029380084B000AF78607B689B6BFB60F868FDF73C
:10294800BBFD00BF1037BD4680BD80B584B000AF69
:1029580078607B689B6BFB60FB681B685A68FB6848
:102968001B6822F003025A60FB6800225A85FB6844
:1029780000225A86FB68012283F84120FB685B6CC1
:1029880043F00802FB685A64F868FFF7A5FF00BF28
:102998001037BD4680BD80B582B000AF78607B68D7
:1029A8005B6A1A887B681B68DA607B685B6A9A1CBA
:1029B8007B685A627B685B8D9BB2013B9AB27B68ED
:1029C8005A857B685B8D9BB2002B0ED17B681B6898
:1029D8005A687B681B6822F0A0025A607B68012253
:1029E80083F841207868FFF76DFF00BF0837BD46C0
:1029F80080BD80B582B000AF78607B681B68DA68FC
:102A08007B68DB6A92B21A807B68DB6A9A1C7B68F7
:102A1800DA627B685B8E9BB2013B9AB27B685A860E
:102A28007B685B8E9BB2002B0ED17B681B685A6853
:102A38007B681B6822F060025A607B68012283F879
:102A480041207868FDF712FF00BF0837BD4680BDFA
:102A580080B586B000AF78607B681B689B687B6137
:102A68007B6893F84130DBB2042B3AD17B6903F0E1
:102A78000103012B09D17B681B685B6803F04003E5
:102A8800402B02D17868FFF7B4FF7B6903F040035D
:102A9800402B26D17B681B685B6803F02003202B42
:102AA8001FD17B681B685A687B681B6822F060022C
:102AB8005A6000233B617B681B68DB683B617B686D
:102AC8001B689B683B613B697B68012283F8412056
:102AD8007B685B6C43F002027B685A647868FFF796
:102AE800FBFE7B6893F84130DBB2032B36D17B6960
:102AF80003F00203022B09D17B681B685B6803F0B3
:102B08008003802B02D17868FFF745FF7B6903F0CB
:102B18000803082B22D17B681B685B6803F020033D
:102B2800202B1BD17B681B685A687B681B6822F0C6
:102B3800A0025A600023FB607B681B689B68FB60EF
:102B4800FB687B68012283F841207B685B6C43F05B
:102B580004027B685A647868FFF7BEFE00BF183726
:102B6800BD4680BD80B588B000AF78607B681B68C3
:102B78009B68FB617B681B68A24A934201D1A24B08
:102B880001E04FF040239B68BB617B681B685B6872
:102B98007B617B681B689B4A934201D19A4B01E099
:102BA8004FF040235B683B617B685B68B3F5007F4F
:102BB80004D07B685B68002B40F09980FB6903F0C8
:102BC8000203022B07D17B6903F08003002B02D09C
:102BD800786800F025F9BB6903F00103012B07D1E0
:102BE8003B6903F04003002B02D0786800F0C8F975
:102BF800BB6903F04003402B3AD13B6903F0200343
:102C0800002B35D07B681B687E4A934201D17E4BEE
:102C180001E04FF040235A687B681B6879498B4272
:102C280001D1794B01E04FF0402322F060025A6055
:102C38007B681B685A687B681B6822F0A0025A6090
:102C48000023FB607B681B68DB68FB607B681B6894
:102C58009B68FB60FB687B68012283F841207B68E6
:102C68005B6C43F002027B685A647868FFF734FEB5
:102C7800FB6903F00803082B40F0BE807B6903F072
:102C88002003002B00F0B8807B681B685A687B68BB
:102C98001B6822F0A0025A607B681B68594A93425D
:102CA80001D1594B01E04FF040235A687B681B68FB
:102CB80054498B4201D1544B01E04FF0402322F09C
:102CC80060025A600023BB607B681B689B68BB601E
:102CD800BB687B68012283F841207B685B6C43F00A
:102CE80004027B685A647868FFF7F6FD84E0BB69E4
:102CF80003F00203022B07D13B6903F08003002B8A
:102D080002D0786800F0BEF8FB6903F00103012BDC
:102D180007D17B6903F04003002B02D0786800F0EC
:102D2800FDF8FB6903F04003402B2FD17B6903F0CA
:102D38002003002B2AD07B681B685A687B681B68B5
:102D480022F060025A607B681B682E4A934201D1C8
:102D58002D4B01E04FF040235A687B681B682949D6
:102D68008B4201D1284B01E04FF0402322F0A00212
:102D78005A607B68012283F841207B685B6C43F0D2
:102D880002027B685A647868FFF7A6FDBB6903F006
:102D98000803082B31D13B6903F02003002B2CD00A
:102DA8007B681B68174A934201D1174B01E04FF02B
:102DB80040235A687B681B6812498B4201D1124B29
:102DC80001E04FF0402322F0A0025A607B681B68A4
:102DD8005A687B681B6822F060025A607B6801228F
:102DE80083F841207B685B6C43F004027B685A647B
:102DF8007868FFF771FD00E000BF00BF2037BD46CF
:102E080080BD00BF003800400034004080B483B06B
:102E180000AF786000BF0C37BD465DF8047B704793
:102E280080B582B000AF78607B685B6A991C7A686D
:102E380051621A887B681B68DA607B685B8D9BB27D
:102E4800013B9AB27B685A857B685B8D9BB2002BED
:102E580013D17B681B685A687B681B6822F0A00244
:102E68005A607B685B8E9BB2002B06D17B6801227F
:102E780083F841207868FFF7C9FF00BF0837BD46CF
:102E880080BD000080B582B000AF78607B685B6A67
:102E9800991C7A68516219887B681B681D4A93429D
:102EA80001D11D4B01E04FF040230A46DA607B68F0
:102EB8005B8D9BB2013B9AB27B685A857B685B8DC0
:102EC8009BB2002B21D17B681B68124A934201D127
:102ED800114B01E04FF040235A687B681B680D498D
:102EE8008B4201D10C4B01E04FF0402322F0A002AD
:102EF8005A607B685B8E9BB2002B06D17B680122EF
:102F080083F841207868FFF781FF00BF0837BD4686
:102F180080BD00BF003800400034004080B582B05A
:102F280000AF78607B681B68D8687B68DB6A991C8F
:102F38007A68D16282B21A807B685B8E9BB2013B51
:102F48009AB27B685A867B685B8E9BB2002B13D142
:102F58007B681B685A687B681B6822F060025A60AD
:102F68007B685B8D9BB2002B06D17B68012283F8BE
:102F780041207868FFF74AFF00BF0837BD4680BD8B
:102F880080B582B000AF78607B681B68204A9342A6
:102F980001D1204B01E04FF04023D8687B68DB6A01
:102FA800991C7A68D16282B21A807B685B8E9BB268
:102FB800013B9AB27B685A867B685B8E9BB2002B7A
:102FC80021D17B681B68124A934201D1114B01E061
:102FD8004FF040235A687B681B680D498B4201D12A
:102FE8000C4B01E04FF0402322F060025A607B68EE
:102FF8005B8D9BB2002B06D17B68012283F84120B0
:103008007868FFF703FF00BF0837BD4680BD00BFE3
:10301800003800400034004080B586B000AF7860CA
:103028007B68002B01D1012364E27B681B6803F0F5
:103038000103002B75D0A34B9B6803F00C03042BF2
:103048000CD0A04B9B6803F00C03082B12D19D4BAE
:103058005B6803F48003B3F5800F0BD1994B1B68B1
:1030680003F40033002B5BD07B685B68002B57D1DF
:1030780001233FE27B685B68B3F5803F06D1914B43
:103088001B68904A43F4803313601DE07B685B68DB
:10309800B3F5A02F0CD18B4B1B688A4A43F48023CD
:1030A8001360884B1B68874A43F4803313600BE036
:1030B800844B1B68834A23F480331360814B1B685D
:1030C800804A23F4802313607B685B68002B13D04D
:1030D800FEF798F9386108E0FEF794F902463B6973
:1030E800D31A642B01D9032304E2764B1B6803F43B
:1030F8000033002BF0D014E0FEF784F9386108E0C3
:10310800FEF780F902463B69D31A642B01D90323E1
:10311800F0E16C4B1B6803F40033002BF0D100E0A6
:1031280000BF7B681B6803F00203002B63D0654B6C
:103138009B6803F00C03002B0BD0624B9B6803F0D9
:103148000C03082B1CD15F4B5B6803F48003002B36
:1031580016D15C4B1B6803F00203002B05D07B687B
:10316800DB68012B01D00123C4E1564B1B6823F017
:10317800F8027B681B69DB00524913430B603AE095
:103188007B68DB68002B20D04F4B01221A60FEF7CA
:1031980039F9386108E0FEF735F902463B69D31A78
:1031A800022B01D90323A5E1464B1B6803F0020358
:1031B800002BF0D0434B1B6823F0F8027B681B6997
:1031C800DB00404913430B6015E03F4B00221A60B7
:1031D800FEF718F9386108E0FEF714F902463B6972
:1031E800D31A022B01D9032384E1364B1B6803F061
:1031F8000203002BF0D17B681B6803F00803002B47
:1032080030D07B685B69002B16D0304B01221A60E6
:10321800FEF7F8F8386108E0FEF7F4F802463B6973
:10322800D31A022B01D9032364E1264B5B6F03F009
:103238000203002BF0D015E0244B00221A60FEF7A1
:10324800E1F8386108E0FEF7DDF802463B69D31A79
:10325800022B01D903234DE11A4B5B6F03F00203E4
:10326800002BF0D17B681B6803F00403002B00F0EF
:10327800A0800023FB75134B1B6C03F08053002BBD
:103288000FD10023BB600F4B1B6C0E4A43F08053D9
:1032980013640C4B1B6C03F08053BB60BB680123A9
:1032A800FB750B4B1B6803F48073002B21D1084B73
:1032B8001B68074A43F480731360FEF7A3F838616C
:1032C80011E000BF0038024000004742800E47422C
:1032D80000700040FEF796F802463B69D31A022BAD
:1032E80001D9032306E1854B1B6803F48073002B87
:1032F800F0D07B689B68012B06D1814B1B6F804AFD
:1033080043F0010313671CE07B689B68052B0CD115
:103318007B4B1B6F7A4A43F004031367784B1B6F90
:10332800774A43F0010313670BE0754B1B6F744A30
:1033380023F001031367724B1B6F714A23F00403D8
:1033480013677B689B68002B15D0FEF75BF8386124
:103358000AE0FEF757F802463B69D31A41F2883271
:10336800934201D90323C5E0654B1B6F03F00203A9
:10337800002BEED014E0FEF745F838610AE0FEF7BE
:1033880041F802463B69D31A41F28832934201D987
:103398000323AFE05A4B1B6F03F00203002BEED15F
:1033A800FB7D012B05D1564B1B6C554A23F08053EE
:1033B80013647B689B69002B00F09B80504B9B68D3
:1033C80003F00C03082B5CD07B689B69022B41D16E
:1033D8004C4B00221A60FEF715F8386108E0FEF73A
:1033E80011F802463B69D31A022B01D9032381E065
:1033F800434B1B6803F00073002BF0D17B68DA693C
:103408007B681B6A1A437B685B6A9B011A437B686B
:103418009B6A5B08013B1B041A437B68DB6A1B063B
:10342800374913434B60374B01221A60FDF7EAFF17
:10343800386108E0FDF7E6FF02463B69D31A022B24
:1034480001D9032356E02E4B1B6803F00073002BB1
:10345800F0D04EE02B4B00221A60FDF7D3FF386105
:1034680008E0FDF7CFFF02463B69D31A022B01D9CA
:1034780003233FE0224B1B6803F00073002BF0D1BD
:1034880037E07B689B69012B01D1012332E01C4B9B
:103498005B68FB607B689B69012B28D0FB6803F4A1
:1034A80080027B68DB699A4221D1FB6803F03F0206
:1034B8007B681B6A9A421AD1FA6847F6C0731340B0
:1034C8007A68526A9201934211D1FB6803F4403240
:1034D8007B689B6A5B08013B1B049A4207D1FB6827
:1034E80003F070627B68DB6A1B069A4201D00123F5
:1034F80000E0002318461837BD4680BD0070004024
:10350800003802406000474280B584B000AF786060
:1035180039607B68002B01D10123CCE0684B1B6824
:1035280003F007033A689A420CD9654B3A68D2B25D
:103538001A70634B1B6803F007033A689A4201D07C
:103548000123B8E07B681B6803F00203002B20D03E
:103558007B681B6803F00403002B05D0594B9B685C
:10356800584A43F4E05393607B681B6803F00803F0
:10357800002B05D0534B9B68524A43F46043936039
:10358800504B9B6823F0F0027B689B684D491343BE
:103598008B607B681B6803F00103002B44D07B68B9
:1035A8005B68012B07D1474B1B6803F40033002BE2
:1035B80019D101237FE07B685B68022B03D07B680D
:1035C8005B68032B07D13F4B1B6803F00073002B8C
:1035D80009D101236FE03B4B1B6803F00203002B6A
:1035E80001D1012367E0374B9B6823F003027B6816
:1035F8005B68344913438B60FDF704FFF8600AE009
:10360800FDF700FF0246FB68D31A41F28832934265
:1036180001D903234FE02B4B9B6803F00C027B6816
:103628005B689B009A42EBD1254B1B6803F00703AC
:103638003A689A420CD2224B3A68D2B21A70204B9E
:103648001B6803F007033A689A4201D0012332E06D
:103658007B681B6803F00403002B08D0194B9B6898
:1036680023F4E0527B68DB68164913438B607B6860
:103678001B6803F00803002B09D0124B9B6823F446
:1036880060427B681B69DB000E4913438B6000F0C6
:1036980021F802460B4B9B681B0903F00F030A49EC
:1036A800CB5C22FA03F3094A1360094B1B681846DE
:1036B800FDF764FE002318461037BD4680BD00BFE5
:1036C800003C024000380240383F000880000020DB
:1036D800840000202DE9B04384B000AF00237B6054
:1036E8000023FB6000233B600023BB60674B9B68A3
:1036F80003F00C03082B0DD0082B00F2BD80002B23
:1037080002D0042B03D0B7E0614BBB60B7E0614B3C
:10371800BB60B4E05D4B5B6803F03F037B605B4BD1
:103728005B6803F48003002B4DD0584B5B689B0902
:103738001A464FF0000340F2FF104FF0000102EA72
:10374800000803EA0109404649464FF000024FF0DD
:1037580000034B0143EAD063420110461946B0EB1F
:10376800080061EB09014FF000024FF000038B01E4
:1037780043EA90638201121A63EB01034FF00000E1
:103788004FF00001D90041EA5271D00002460B46C1
:1037980012EB080243EB09034FF000004FF0000161
:1037A800590241EAD251500202460B4610461946C8
:1037B8007B681A464FF00003FCF702FD02460B46F1
:1037C8001346FB604AE0314B5B689B091A464FF091
:1037D800000340F2FF104FF0000102EA000403EA80
:1037E8000105204629464FF000024FF000034B0127
:1037F80043EAD063420110461946001B61EB0501FC
:103808004FF000024FF000038B0143EA90638201FE
:10381800121A63EB01034FF000004FF00001D900CA
:1038280041EA5271D00002460B46121945EB0303D8
:103838004FF000004FF00001990241EA92519002C6
:1038480002460B46104619467B681A464FF000039D
:10385800FCF7B6FC02460B461346FB600B4B5B6855
:103868001B0C03F0030301335B003B60FA683B6801
:10387800B2FBF3F3BB6002E0054BBB6000BFBB6863
:1038880018461037BD46BDE8B08300BF0038024077
:103898000024F40000127A0080B586B000AF78608A
:1038A80000237B6100233B617B681B6803F00103F5
:1038B800002B05D17B681B6803F00403002B35D06F
:1038C800624B00221A60FDF79DFD786108E0FDF764
:1038D80099FD02467B69D31A022B01D90323B0E074
:1038E8005B4B1B6803F00063002BF0D17B685B68BF
:1038F8009A017B689B681B0755491343C1F88430BC
:10390800524B01221A60FDF77DFD786108E0FDF752
:1039180079FD02467B69D31A022B01D9032390E073
:103928004B4B1B6803F00063002BF0D07B681B68CF
:1039380003F00203002B00F083800023FB60444B5C
:103948001B6C434A43F080531364414B1B6C03F0D8
:103958008053FB60FB683F4B1B683E4A43F480730F
:103968001360FDF74FFD786108E0FDF74BFD024657
:103978007B69D31A022B01D9032362E0354B1B68FC
:1039880003F48073002BF0D0314B1B6F03F44073AA
:103998003B613B69002B2FD07B68DB6803F44073E5
:1039A8003A699A4228D02A4B1B6F23F440733B6133
:1039B800294B01221A60284B00221A60244A3B69CD
:1039C8001367234B1B6F03F00103012B14D1FDF781
:1039D80019FD78610AE0FDF715FD02467B69D31AE7
:1039E80041F28832934201D903232AE0184B1B6F16
:1039F80003F00203002BEED07B68DB6803F440730E
:103A0800B3F5407F0DD1124B9B6823F4F8127B6805
:103A1800DB6823F0704323F440730D4913438B6034
:103A280005E00B4B9B680A4A23F4F8139360084B94
:103A38001A6F7B68DB68C3F30B03054913430B67F5
:103A4800002318461837BD4680BD00BF68004742AE
:103A58000038024000700040400E474280B487B0F2
:103A680000AF786000237B6100233B610023FB608B
:103A78000023BB607B68012B3ED1234B9B6803F47A
:103A88000003FB60FB68002B05D0FB68012B2FD1DE
:103A98001E4B7B612FE01C4B5B6803F48003B3F57E
:103AA800800F08D1184B5B6803F03F03184AB2FB3C
:103AB800F3F33B6107E0144B5B6803F03F03154ADF
:103AC800B2FBF3F33B61104BD3F884309B09C3F38B
:103AD80008023B6902FB03F3BB600B4BD3F884304D
:103AE8001B0F03F00703BA68B2FBF3F37B6102E034
:103AF80000237B6100BF00BF7B6918461C37BD46A9
:103B08005DF8047B704700BF003802400080BB00AE
:103B180000127A000024F40080B582B000AF78600B
:103B28007B68002B01D1012341E07B6893F83D308D
:103B3800DBB2002B06D17B68002283F83C20786832
:103B4800FDF75EFB7B68022283F83D207B681A68DC
:103B58007B6804331946104600F096F87B6801220A
:103B680083F846207B68012283F83E207B68012287
:103B780083F83F207B68012283F840207B6801227C
:103B880083F841207B68012283F842207B68012268
:103B980083F843207B68012283F844207B68012254
:103BA80083F845207B68012283F83D2000231846CE
:103BB8000837BD4680BD000080B485B000AF78608E
:103BC8007B6893F83D30DBB2012B01D0012346E03E
:103BD8007B68022283F83D207B681B68234A934256
:103BE80022D07B681B68B3F1804F1DD07B681B68AF
:103BF8001F4A934218D07B681B681E4A934213D011
:103C08007B681B681C4A93420ED07B681B681B4A62
:103C1800934209D07B681B68194A934204D07B6899
:103C28001B68184A934211D17B681B689B6803F094
:103C38000703FB60FB68062B10D07B681B681A68BB
:103C48007B681B6842F001021A6007E07B681B680A
:103C58001A687B681B6842F001021A600023184644
:103C68001437BD465DF8047B704700BF0000014073
:103C78000004004000080040000C0040000401401F
:103C8800004001400018004080B485B000AF786063
:103C980039607B681B68FB607B68404A934213D09D
:103CA8007B68B3F1804F0FD07B683D4A93420BD0BD
:103CB8007B683C4A934207D07B683B4A934203D0D7
:103CC8007B683A4A934208D1FB6823F07003FB6093
:103CD8003B685B68FA681343FB607B682F4A934232
:103CE8002BD07B68B3F1804F27D07B682C4A934256
:103CF80023D07B682B4A93421FD07B682A4A934281
:103D08001BD07B68294A934217D07B68284A934284
:103D180013D07B68274A93420FD07B68264A934288
:103D28000BD07B68254A934207D07B68244A93428C
:103D380003D07B68234A934208D1FB6823F440737D
:103D4800FB603B68DB68FA681343FB60FB6823F0A1
:103D580080023B685B691343FB607B68FA681A6002
:103D68003B689A687B68DA623B681A687B689A6283
:103D78007B680A4A934203D07B680C4A934203D17A
:103D88003B681A697B681A637B6801225A6100BF25
:103D98001437BD465DF8047B704700BF0000014042
:103DA8000004004000080040000C004000040140EE
:103DB8000040014000440140004801400018004014
:103DC800001C00400020004080B485B000AF78603F
:103DD80039607B6893F83C30012B01D102235AE00B
:103DE8007B68012283F83C207B68022283F83D200F
:103DF8007B681B685B68FB607B681B689B68BB60B3
:103E0800FB6823F07003FB603B681B68FA68134388
:103E1800FB607B681B68FA685A607B681B68214AEC
:103E2800934222D07B681B68B3F1804F1DD07B681A
:103E38001B681D4A934218D07B681B681B4A934233
:103E480013D07B681B681A4A93420ED07B681B68A4
:103E5800184A934209D07B681B68174A934204D0DA
:103E68007B681B68154A93420CD1BB6823F080031A
:103E7800BB603B685B68BA681343BB607B681B68C0
:103E8800BA689A607B68012283F83D207B6800222B
:103E980083F83C20002318461437BD465DF8047BA0
:103EA800704700BF000001400004004000080040C7
:103EB800000C004000040140004001400018004090
:103EC80070B50D4D0D4C641BA4100026A64209D1F7
:103ED8000B4D0C4C00F020F8641BA4100026A642E1
:103EE80005D170BD55F8043B98470136EEE755F803
:103EF800043B98470136F2E7583F0008583F00084E
:103F0800583F00085C3F000802440346934200D132
:103F1800704703F8011BF9E7F8B500BFF8BC08BC07
:103F28009E467047F8B500BFF8BC08BC9E4670476F
:103F38000000000000000000010203040607080951
:083F4800000610160006101619
:083F5000A8C2FF7F0100000080
:043F5800AD010008AF
:043F5C0089010008CF
:103F6000000002000900150027003F005E008400E9
:103F7000B300EC002E017B01D3013502A20218032D
:103F800098031F04AC043D05CF056106F0067907D0
:103F9000FA076F08D70830097609AA09CA09D409AF
:103FA000D409CA09AA0976093009D7086F08FA079F
:103FB0007907F0066106CF053D05AC041F049803A0
:103FC0001803A2023502D3017B012E01EC00B300DD
:103FD00084005E003F002700150009000200000079
:0C3FE0000024F4001000000001000000AC
:04000005080012EDF0
:00000001FF
